{
  "_format": "hh-sol-artifact-1",
  "contractName": "ShopChain",
  "sourceName": "contracts/ShopChain.sol",
  "contractAddress": "0xAc7C41567EaC78Ba97FAa1004ac31C2BAffeA493",
  "abi": [
    {
      "inputs": [],
      "stateMutability": "nonpayable",
      "type": "constructor"
    },
    {
      "anonymous": false,
      "inputs": [
        {
          "indexed": false,
          "internalType": "address",
          "name": "",
          "type": "address"
        }
      ],
      "name": "DataFeedSet",
      "type": "event"
    },
    {
      "anonymous": false,
      "inputs": [
        {
          "components": [
            {
              "internalType": "uint256",
              "name": "id",
              "type": "uint256"
            },
            {
              "internalType": "address payable",
              "name": "buyer",
              "type": "address"
            },
            {
              "internalType": "address payable",
              "name": "seller",
              "type": "address"
            },
            {
              "internalType": "uint256",
              "name": "amount",
              "type": "uint256"
            },
            {
              "internalType": "enum ShopChain.State",
              "name": "state",
              "type": "uint8"
            }
          ],
          "indexed": false,
          "internalType": "struct ShopChain.Order",
          "name": "",
          "type": "tuple"
        }
      ],
      "name": "OrderConfirmed",
      "type": "event"
    },
    {
      "anonymous": false,
      "inputs": [
        {
          "components": [
            {
              "internalType": "uint256",
              "name": "id",
              "type": "uint256"
            },
            {
              "internalType": "address payable",
              "name": "buyer",
              "type": "address"
            },
            {
              "internalType": "address payable",
              "name": "seller",
              "type": "address"
            },
            {
              "internalType": "uint256",
              "name": "amount",
              "type": "uint256"
            },
            {
              "internalType": "enum ShopChain.State",
              "name": "state",
              "type": "uint8"
            }
          ],
          "indexed": false,
          "internalType": "struct ShopChain.Order",
          "name": "",
          "type": "tuple"
        }
      ],
      "name": "OrderCreated",
      "type": "event"
    },
    {
      "anonymous": false,
      "inputs": [
        {
          "components": [
            {
              "internalType": "uint256",
              "name": "id",
              "type": "uint256"
            },
            {
              "internalType": "address payable",
              "name": "buyer",
              "type": "address"
            },
            {
              "internalType": "address payable",
              "name": "seller",
              "type": "address"
            },
            {
              "internalType": "uint256",
              "name": "amount",
              "type": "uint256"
            },
            {
              "internalType": "enum ShopChain.State",
              "name": "state",
              "type": "uint8"
            }
          ],
          "indexed": false,
          "internalType": "struct ShopChain.Order",
          "name": "",
          "type": "tuple"
        }
      ],
      "name": "OrderDeleted",
      "type": "event"
    },
    {
      "anonymous": false,
      "inputs": [
        {
          "components": [
            {
              "internalType": "uint256",
              "name": "id",
              "type": "uint256"
            },
            {
              "internalType": "address payable",
              "name": "buyer",
              "type": "address"
            },
            {
              "internalType": "address payable",
              "name": "seller",
              "type": "address"
            },
            {
              "internalType": "uint256",
              "name": "amount",
              "type": "uint256"
            },
            {
              "internalType": "enum ShopChain.State",
              "name": "state",
              "type": "uint8"
            }
          ],
          "indexed": false,
          "internalType": "struct ShopChain.Order",
          "name": "",
          "type": "tuple"
        }
      ],
      "name": "OrderRefunded",
      "type": "event"
    },
    {
      "anonymous": false,
      "inputs": [
        {
          "components": [
            {
              "internalType": "uint256",
              "name": "id",
              "type": "uint256"
            },
            {
              "internalType": "address payable",
              "name": "buyer",
              "type": "address"
            },
            {
              "internalType": "address payable",
              "name": "seller",
              "type": "address"
            },
            {
              "internalType": "uint256",
              "name": "amount",
              "type": "uint256"
            },
            {
              "internalType": "enum ShopChain.State",
              "name": "state",
              "type": "uint8"
            }
          ],
          "indexed": false,
          "internalType": "struct ShopChain.Order",
          "name": "",
          "type": "tuple"
        }
      ],
      "name": "OrderShipped",
      "type": "event"
    },
    {
      "anonymous": false,
      "inputs": [
        {
          "components": [
            {
              "internalType": "uint256",
              "name": "id",
              "type": "uint256"
            },
            {
              "internalType": "address payable",
              "name": "buyer",
              "type": "address"
            },
            {
              "internalType": "address payable",
              "name": "seller",
              "type": "address"
            },
            {
              "internalType": "uint256",
              "name": "amount",
              "type": "uint256"
            },
            {
              "internalType": "enum ShopChain.State",
              "name": "state",
              "type": "uint8"
            }
          ],
          "indexed": false,
          "internalType": "struct ShopChain.Order",
          "name": "",
          "type": "tuple"
        }
      ],
      "name": "RefundAsked",
      "type": "event"
    },
    {
      "anonymous": false,
      "inputs": [
        {
          "indexed": false,
          "internalType": "address",
          "name": "",
          "type": "address"
        }
      ],
      "name": "SellerRegistered",
      "type": "event"
    },
    {
      "inputs": [
        {
          "internalType": "uint256",
          "name": "orderId",
          "type": "uint256"
        }
      ],
      "name": "askRefund",
      "outputs": [],
      "stateMutability": "nonpayable",
      "type": "function"
    },
    {
      "inputs": [
        {
          "internalType": "uint256",
          "name": "orderId",
          "type": "uint256"
        }
      ],
      "name": "confirmOrder",
      "outputs": [],
      "stateMutability": "nonpayable",
      "type": "function"
    },
    {
      "inputs": [],
      "name": "contractAddress",
      "outputs": [
        {
          "internalType": "address",
          "name": "",
          "type": "address"
        }
      ],
      "stateMutability": "view",
      "type": "function"
    },
    {
      "inputs": [
        {
          "internalType": "address payable",
          "name": "seller",
          "type": "address"
        }
      ],
      "name": "createOrder",
      "outputs": [],
      "stateMutability": "payable",
      "type": "function"
    },
    {
      "inputs": [
        {
          "internalType": "uint256",
          "name": "orderId",
          "type": "uint256"
        }
      ],
      "name": "deleteOrder",
      "outputs": [],
      "stateMutability": "nonpayable",
      "type": "function"
    },
    {
      "inputs": [],
      "name": "getBalance",
      "outputs": [
        {
          "internalType": "uint256",
          "name": "",
          "type": "uint256"
        }
      ],
      "stateMutability": "view",
      "type": "function"
    },
    {
      "inputs": [
        {
          "internalType": "uint256",
          "name": "orderId",
          "type": "uint256"
        }
      ],
      "name": "getLogsOfOrder",
      "outputs": [
        {
          "components": [
            {
              "internalType": "enum ShopChain.State",
              "name": "state",
              "type": "uint8"
            },
            {
              "internalType": "uint256",
              "name": "timestamp",
              "type": "uint256"
            }
          ],
          "internalType": "struct ShopChain.Log[]",
          "name": "",
          "type": "tuple[]"
        }
      ],
      "stateMutability": "view",
      "type": "function"
    },
    {
      "inputs": [
        {
          "internalType": "uint256",
          "name": "id",
          "type": "uint256"
        }
      ],
      "name": "getOrder",
      "outputs": [
        {
          "components": [
            {
              "internalType": "uint256",
              "name": "id",
              "type": "uint256"
            },
            {
              "internalType": "address payable",
              "name": "buyer",
              "type": "address"
            },
            {
              "internalType": "address payable",
              "name": "seller",
              "type": "address"
            },
            {
              "internalType": "uint256",
              "name": "amount",
              "type": "uint256"
            },
            {
              "internalType": "enum ShopChain.State",
              "name": "state",
              "type": "uint8"
            }
          ],
          "internalType": "struct ShopChain.Order",
          "name": "",
          "type": "tuple"
        }
      ],
      "stateMutability": "view",
      "type": "function"
    },
    {
      "inputs": [],
      "name": "getOrders",
      "outputs": [
        {
          "components": [
            {
              "internalType": "uint256",
              "name": "id",
              "type": "uint256"
            },
            {
              "internalType": "address payable",
              "name": "buyer",
              "type": "address"
            },
            {
              "internalType": "address payable",
              "name": "seller",
              "type": "address"
            },
            {
              "internalType": "uint256",
              "name": "amount",
              "type": "uint256"
            },
            {
              "internalType": "enum ShopChain.State",
              "name": "state",
              "type": "uint8"
            }
          ],
          "internalType": "struct ShopChain.Order[]",
          "name": "",
          "type": "tuple[]"
        }
      ],
      "stateMutability": "view",
      "type": "function"
    },
    {
      "inputs": [
        {
          "internalType": "address",
          "name": "user",
          "type": "address"
        }
      ],
      "name": "getOrdersOfUser",
      "outputs": [
        {
          "components": [
            {
              "internalType": "uint256",
              "name": "id",
              "type": "uint256"
            },
            {
              "internalType": "address payable",
              "name": "buyer",
              "type": "address"
            },
            {
              "internalType": "address payable",
              "name": "seller",
              "type": "address"
            },
            {
              "internalType": "uint256",
              "name": "amount",
              "type": "uint256"
            },
            {
              "internalType": "enum ShopChain.State",
              "name": "state",
              "type": "uint8"
            }
          ],
          "internalType": "struct ShopChain.Order[]",
          "name": "",
          "type": "tuple[]"
        }
      ],
      "stateMutability": "view",
      "type": "function"
    },
    {
      "inputs": [],
      "name": "getSellers",
      "outputs": [
        {
          "internalType": "address[]",
          "name": "",
          "type": "address[]"
        }
      ],
      "stateMutability": "view",
      "type": "function"
    },
    {
      "inputs": [],
      "name": "getTotalOrders",
      "outputs": [
        {
          "internalType": "uint256",
          "name": "",
          "type": "uint256"
        }
      ],
      "stateMutability": "view",
      "type": "function"
    },
    {
      "inputs": [],
      "name": "getTotalSellers",
      "outputs": [
        {
          "internalType": "uint256",
          "name": "",
          "type": "uint256"
        }
      ],
      "stateMutability": "view",
      "type": "function"
    },
    {
      "inputs": [],
      "name": "owner",
      "outputs": [
        {
          "internalType": "address",
          "name": "",
          "type": "address"
        }
      ],
      "stateMutability": "view",
      "type": "function"
    },
    {
      "inputs": [
        {
          "internalType": "uint256",
          "name": "orderId",
          "type": "uint256"
        },
        {
          "internalType": "uint256",
          "name": "amount",
          "type": "uint256"
        }
      ],
      "name": "refundBuyer",
      "outputs": [],
      "stateMutability": "payable",
      "type": "function"
    },
    {
      "inputs": [],
      "name": "registerAsSeller",
      "outputs": [],
      "stateMutability": "nonpayable",
      "type": "function"
    },
    {
      "inputs": [
        {
          "internalType": "uint256",
          "name": "orderId",
          "type": "uint256"
        }
      ],
      "name": "shipOrder",
      "outputs": [],
      "stateMutability": "nonpayable",
      "type": "function"
    },
    {
      "stateMutability": "payable",
      "type": "receive"
    }
  ],
  "bytecode": "0x60c06040523073ffffffffffffffffffffffffffffffffffffffff1660809073ffffffffffffffffffffffffffffffffffffffff1660601b81525034801561004657600080fd5b503373ffffffffffffffffffffffffffffffffffffffff1660a08173ffffffffffffffffffffffffffffffffffffffff1660601b8152505060805160601c60a05160601c614ead6100b06000396000612ae60152600081816118dd0152613f070152614ead6000f3fe6080604052600436106101025760003560e01c8063375f16a7116100955780639ff41c99116100645780639ff41c99146102fb578063d09ef24114610338578063e47cad7514610375578063ea3774e31461039e578063f6b4dfb4146103ba57610109565b8063375f16a7146102515780637ee454cb1461027c5780638ac7d79c146102a75780638da5cb5b146102d057610109565b8063128b8532116100d1578063128b8532146101bb578063194c302c146101d2578063245cd401146101fb5780632e2dc43e1461022657610109565b8063044ce3081461010e5780630d4b18e81461012a57806311a003271461016757806312065fe01461019057610109565b3661010957005b600080fd5b6101286004803603810190610123919061409a565b6103e5565b005b34801561013657600080fd5b50610151600480360381019061014c919061401f565b610a3d565b60405161015e9190614a10565b60405180910390f35b34801561017357600080fd5b5061018e60048036038101906101899190614071565b61123e565b005b34801561019c57600080fd5b506101a56118d9565b6040516101b29190614c2d565b60405180910390f35b3480156101c757600080fd5b506101d0611918565b005b3480156101de57600080fd5b506101f960048036038101906101f49190614071565b611b28565b005b34801561020757600080fd5b506102106120ef565b60405161021d9190614c2d565b60405180910390f35b34801561023257600080fd5b5061023b612100565b6040516102489190614a10565b60405180910390f35b34801561025d57600080fd5b5061026661235f565b6040516102739190614c2d565b60405180910390f35b34801561028857600080fd5b50610291612370565b60405161029e91906149cc565b60405180910390f35b3480156102b357600080fd5b506102ce60048036038101906102c99190614071565b6124c2565b005b3480156102dc57600080fd5b506102e5612ae4565b6040516102f291906149b1565b60405180910390f35b34801561030757600080fd5b50610322600480360381019061031d9190614071565b612b08565b60405161032f91906149ee565b60405180910390f35b34801561034457600080fd5b5061035f600480360381019061035a9190614071565b612c59565b60405161036c9190614c12565b60405180910390f35b34801561038157600080fd5b5061039c60048036038101906103979190614071565b612e1b565b005b6103b860048036038101906103b39190614048565b61394c565b005b3480156103c657600080fd5b506103cf613f05565b6040516103dc91906149b1565b60405180910390f35b816103f06001613f29565b811115610432576040517f08c379a000000000000000000000000000000000000000000000000000000000815260040161042990614bf2565b60405180910390fd5b823373ffffffffffffffffffffffffffffffffffffffff166002600083815260200190815260200160002060020160009054906101000a900473ffffffffffffffffffffffffffffffffffffffff1673ffffffffffffffffffffffffffffffffffffffff16146104d7576040517f08c379a00000000000000000000000000000000000000000000000000000000081526004016104ce90614a72565b60405180910390fd5b6000600260008681526020019081526020016000206040518060a0016040529081600082015481526020016001820160009054906101000a900473ffffffffffffffffffffffffffffffffffffffff1673ffffffffffffffffffffffffffffffffffffffff1673ffffffffffffffffffffffffffffffffffffffff1681526020016002820160009054906101000a900473ffffffffffffffffffffffffffffffffffffffff1673ffffffffffffffffffffffffffffffffffffffff1673ffffffffffffffffffffffffffffffffffffffff168152602001600382015481526020016004820160009054906101000a900460ff166005811115610602577f4e487b7100000000000000000000000000000000000000000000000000000000600052602160045260246000fd5b600581111561063a577f4e487b7100000000000000000000000000000000000000000000000000000000600052602160045260246000fd5b8152505090506004600581111561067a577f4e487b7100000000000000000000000000000000000000000000000000000000600052602160045260246000fd5b816080015160058111156106b7577f4e487b7100000000000000000000000000000000000000000000000000000000600052602160045260246000fd5b146106f7576040517f08c379a00000000000000000000000000000000000000000000000000000000081526004016106ee90614bb2565b60405180910390fd5b8060600151841461073d576040517f08c379a000000000000000000000000000000000000000000000000000000000815260040161073490614ad2565b60405180910390fd5b60058160800190600581111561077c577f4e487b7100000000000000000000000000000000000000000000000000000000600052602160045260246000fd5b908160058111156107b6577f4e487b7100000000000000000000000000000000000000000000000000000000600052602160045260246000fd5b8152505080600260008781526020019081526020016000206000820151816000015560208201518160010160006101000a81548173ffffffffffffffffffffffffffffffffffffffff021916908373ffffffffffffffffffffffffffffffffffffffff16021790555060408201518160020160006101000a81548173ffffffffffffffffffffffffffffffffffffffff021916908373ffffffffffffffffffffffffffffffffffffffff1602179055506060820151816003015560808201518160040160006101000a81548160ff021916908360058111156108c1577f4e487b7100000000000000000000000000000000000000000000000000000000600052602160045260246000fd5b02179055509050507fe4abc940b5524be9ddb12bce78b2c90d7a2cf10a9baea081b6fb59df6f944dbc816040516108f89190614c12565b60405180910390a1600860008681526020019081526020016000206040518060400160405280600580811115610957577f4e487b7100000000000000000000000000000000000000000000000000000000600052602160045260246000fd5b815260200142815250908060018154018082558091505060019003906000526020600020906002020160009091909190915060008201518160000160006101000a81548160ff021916908360058111156109da577f4e487b7100000000000000000000000000000000000000000000000000000000600052602160045260246000fd5b0217905550602082015181600101555050806020015173ffffffffffffffffffffffffffffffffffffffff166108fc859081150290604051600060405180830381858888f19350505050158015610a35573d6000803e3d6000fd5b505050505050565b606060008067ffffffffffffffff811115610a81577f4e487b7100000000000000000000000000000000000000000000000000000000600052604160045260246000fd5b604051908082528060200260200182016040528015610aba57816020015b610aa7613f4d565b815260200190600190039081610a9f5790505b509050600360008473ffffffffffffffffffffffffffffffffffffffff1673ffffffffffffffffffffffffffffffffffffffff16815260200190815260200160002060009054906101000a900460ff1615610e5b57600660008473ffffffffffffffffffffffffffffffffffffffff1673ffffffffffffffffffffffffffffffffffffffff1681526020019081526020016000208054905067ffffffffffffffff811115610b91577f4e487b7100000000000000000000000000000000000000000000000000000000600052604160045260246000fd5b604051908082528060200260200182016040528015610bca57816020015b610bb7613f4d565b815260200190600190039081610baf5790505b50905060005b600660008573ffffffffffffffffffffffffffffffffffffffff1673ffffffffffffffffffffffffffffffffffffffff16815260200190815260200160002080549050811015610e555760026000600660008773ffffffffffffffffffffffffffffffffffffffff1673ffffffffffffffffffffffffffffffffffffffff1681526020019081526020016000208381548110610c95577f4e487b7100000000000000000000000000000000000000000000000000000000600052603260045260246000fd5b906000526020600020015481526020019081526020016000206040518060a0016040529081600082015481526020016001820160009054906101000a900473ffffffffffffffffffffffffffffffffffffffff1673ffffffffffffffffffffffffffffffffffffffff1673ffffffffffffffffffffffffffffffffffffffff1681526020016002820160009054906101000a900473ffffffffffffffffffffffffffffffffffffffff1673ffffffffffffffffffffffffffffffffffffffff1673ffffffffffffffffffffffffffffffffffffffff168152602001600382015481526020016004820160009054906101000a900460ff166005811115610dc4577f4e487b7100000000000000000000000000000000000000000000000000000000600052602160045260246000fd5b6005811115610dfc577f4e487b7100000000000000000000000000000000000000000000000000000000600052602160045260246000fd5b81525050828281518110610e39577f4e487b7100000000000000000000000000000000000000000000000000000000600052603260045260246000fd5b602002602001018190525080610e4e90614d77565b9050610bd0565b50611235565b600460008473ffffffffffffffffffffffffffffffffffffffff1673ffffffffffffffffffffffffffffffffffffffff16815260200190815260200160002060009054906101000a900460ff16156111f957600760008473ffffffffffffffffffffffffffffffffffffffff1673ffffffffffffffffffffffffffffffffffffffff1681526020019081526020016000208054905067ffffffffffffffff811115610f2f577f4e487b7100000000000000000000000000000000000000000000000000000000600052604160045260246000fd5b604051908082528060200260200182016040528015610f6857816020015b610f55613f4d565b815260200190600190039081610f4d5790505b50905060005b600760008573ffffffffffffffffffffffffffffffffffffffff1673ffffffffffffffffffffffffffffffffffffffff168152602001908152602001600020805490508110156111f35760026000600760008773ffffffffffffffffffffffffffffffffffffffff1673ffffffffffffffffffffffffffffffffffffffff1681526020019081526020016000208381548110611033577f4e487b7100000000000000000000000000000000000000000000000000000000600052603260045260246000fd5b906000526020600020015481526020019081526020016000206040518060a0016040529081600082015481526020016001820160009054906101000a900473ffffffffffffffffffffffffffffffffffffffff1673ffffffffffffffffffffffffffffffffffffffff1673ffffffffffffffffffffffffffffffffffffffff1681526020016002820160009054906101000a900473ffffffffffffffffffffffffffffffffffffffff1673ffffffffffffffffffffffffffffffffffffffff1673ffffffffffffffffffffffffffffffffffffffff168152602001600382015481526020016004820160009054906101000a900460ff166005811115611162577f4e487b7100000000000000000000000000000000000000000000000000000000600052602160045260246000fd5b600581111561119a577f4e487b7100000000000000000000000000000000000000000000000000000000600052602160045260246000fd5b815250508282815181106111d7577f4e487b7100000000000000000000000000000000000000000000000000000000600052603260045260246000fd5b6020026020010181905250806111ec90614d77565b9050610f6e565b50611234565b6040517f08c379a000000000000000000000000000000000000000000000000000000000815260040161122b90614b72565b60405180910390fd5b5b80915050919050565b806112496001613f29565b81111561128b576040517f08c379a000000000000000000000000000000000000000000000000000000000815260040161128290614bf2565b60405180910390fd5b813373ffffffffffffffffffffffffffffffffffffffff166002600083815260200190815260200160002060020160009054906101000a900473ffffffffffffffffffffffffffffffffffffffff1673ffffffffffffffffffffffffffffffffffffffff1614611330576040517f08c379a000000000000000000000000000000000000000000000000000000000815260040161132790614a72565b60405180910390fd5b6000600260008581526020019081526020016000206040518060a0016040529081600082015481526020016001820160009054906101000a900473ffffffffffffffffffffffffffffffffffffffff1673ffffffffffffffffffffffffffffffffffffffff1673ffffffffffffffffffffffffffffffffffffffff1681526020016002820160009054906101000a900473ffffffffffffffffffffffffffffffffffffffff1673ffffffffffffffffffffffffffffffffffffffff1673ffffffffffffffffffffffffffffffffffffffff168152602001600382015481526020016004820160009054906101000a900460ff16600581111561145b577f4e487b7100000000000000000000000000000000000000000000000000000000600052602160045260246000fd5b6005811115611493577f4e487b7100000000000000000000000000000000000000000000000000000000600052602160045260246000fd5b815250509050600060058111156114d3577f4e487b7100000000000000000000000000000000000000000000000000000000600052602160045260246000fd5b81608001516005811115611510577f4e487b7100000000000000000000000000000000000000000000000000000000600052602160045260246000fd5b1480611590575060016005811115611551577f4e487b7100000000000000000000000000000000000000000000000000000000600052602160045260246000fd5b8160800151600581111561158e577f4e487b7100000000000000000000000000000000000000000000000000000000600052602160045260246000fd5b145b6115cf576040517f08c379a00000000000000000000000000000000000000000000000000000000081526004016115c690614ab2565b60405180910390fd5b600081606001519050600382608001906005811115611617577f4e487b7100000000000000000000000000000000000000000000000000000000600052602160045260246000fd5b90816005811115611651577f4e487b7100000000000000000000000000000000000000000000000000000000600052602160045260246000fd5b8152505081600260008781526020019081526020016000206000820151816000015560208201518160010160006101000a81548173ffffffffffffffffffffffffffffffffffffffff021916908373ffffffffffffffffffffffffffffffffffffffff16021790555060408201518160020160006101000a81548173ffffffffffffffffffffffffffffffffffffffff021916908373ffffffffffffffffffffffffffffffffffffffff1602179055506060820151816003015560808201518160040160006101000a81548160ff0219169083600581111561175c577f4e487b7100000000000000000000000000000000000000000000000000000000600052602160045260246000fd5b02179055509050507f2267760a98555bb0f97ee96e0fe62f8e95dadf36b987aaa899363b7d6ff03f8d826040516117939190614c12565b60405180910390a1600860008681526020019081526020016000206040518060400160405280600360058111156117f3577f4e487b7100000000000000000000000000000000000000000000000000000000600052602160045260246000fd5b815260200142815250908060018154018082558091505060019003906000526020600020906002020160009091909190915060008201518160000160006101000a81548160ff02191690836005811115611876577f4e487b7100000000000000000000000000000000000000000000000000000000600052602160045260246000fd5b0217905550602082015181600101555050816020015173ffffffffffffffffffffffffffffffffffffffff166108fc829081150290604051600060405180830381858888f193505050501580156118d1573d6000803e3d6000fd5b505050505050565b60007f000000000000000000000000000000000000000000000000000000000000000073ffffffffffffffffffffffffffffffffffffffff1631905090565b600460003373ffffffffffffffffffffffffffffffffffffffff1673ffffffffffffffffffffffffffffffffffffffff16815260200190815260200160002060009054906101000a900460ff16156119a5576040517f08c379a000000000000000000000000000000000000000000000000000000000815260040161199c90614a52565b60405180910390fd5b600360003373ffffffffffffffffffffffffffffffffffffffff1673ffffffffffffffffffffffffffffffffffffffff16815260200190815260200160002060009054906101000a900460ff1615611a32576040517f08c379a0000000000000000000000000000000000000000000000000000000008152600401611a2990614b32565b60405180910390fd5b6001600460003373ffffffffffffffffffffffffffffffffffffffff1673ffffffffffffffffffffffffffffffffffffffff16815260200190815260200160002060006101000a81548160ff0219169083151502179055503360056000611a996000613f29565b815260200190815260200160002060006101000a81548173ffffffffffffffffffffffffffffffffffffffff021916908373ffffffffffffffffffffffffffffffffffffffff160217905550611aef6000613f37565b7f4d97d287a8f631378031b05cb24c876085261ddaa7b8f584477370ef473fbb3d33604051611b1e91906149b1565b60405180910390a1565b80611b336001613f29565b811115611b75576040517f08c379a0000000000000000000000000000000000000000000000000000000008152600401611b6c90614bf2565b60405180910390fd5b813373ffffffffffffffffffffffffffffffffffffffff166002600083815260200190815260200160002060020160009054906101000a900473ffffffffffffffffffffffffffffffffffffffff1673ffffffffffffffffffffffffffffffffffffffff1614611c1a576040517f08c379a0000000000000000000000000000000000000000000000000000000008152600401611c1190614a72565b60405180910390fd5b6000600260008581526020019081526020016000206040518060a0016040529081600082015481526020016001820160009054906101000a900473ffffffffffffffffffffffffffffffffffffffff1673ffffffffffffffffffffffffffffffffffffffff1673ffffffffffffffffffffffffffffffffffffffff1681526020016002820160009054906101000a900473ffffffffffffffffffffffffffffffffffffffff1673ffffffffffffffffffffffffffffffffffffffff1673ffffffffffffffffffffffffffffffffffffffff168152602001600382015481526020016004820160009054906101000a900460ff166005811115611d45577f4e487b7100000000000000000000000000000000000000000000000000000000600052602160045260246000fd5b6005811115611d7d577f4e487b7100000000000000000000000000000000000000000000000000000000600052602160045260246000fd5b81525050905060006005811115611dbd577f4e487b7100000000000000000000000000000000000000000000000000000000600052602160045260246000fd5b81608001516005811115611dfa577f4e487b7100000000000000000000000000000000000000000000000000000000600052602160045260246000fd5b14611e3a576040517f08c379a0000000000000000000000000000000000000000000000000000000008152600401611e3190614b12565b60405180910390fd5b600181608001906005811115611e79577f4e487b7100000000000000000000000000000000000000000000000000000000600052602160045260246000fd5b90816005811115611eb3577f4e487b7100000000000000000000000000000000000000000000000000000000600052602160045260246000fd5b8152505080600260008681526020019081526020016000206000820151816000015560208201518160010160006101000a81548173ffffffffffffffffffffffffffffffffffffffff021916908373ffffffffffffffffffffffffffffffffffffffff16021790555060408201518160020160006101000a81548173ffffffffffffffffffffffffffffffffffffffff021916908373ffffffffffffffffffffffffffffffffffffffff1602179055506060820151816003015560808201518160040160006101000a81548160ff02191690836005811115611fbe577f4e487b7100000000000000000000000000000000000000000000000000000000600052602160045260246000fd5b02179055509050507f3555e7cc004c34a850ba34c02e56afc2ad9410f106cd800dd981874158eb9f9581604051611ff59190614c12565b60405180910390a160086000858152602001908152602001600020604051806040016040528060016005811115612055577f4e487b7100000000000000000000000000000000000000000000000000000000600052602160045260246000fd5b815260200142815250908060018154018082558091505060019003906000526020600020906002020160009091909190915060008201518160000160006101000a81548160ff021916908360058111156120d8577f4e487b7100000000000000000000000000000000000000000000000000000000600052602160045260246000fd5b021790555060208201518160010155505050505050565b60006120fb6000613f29565b905090565b6060600061210e6001613f29565b67ffffffffffffffff81111561214d577f4e487b7100000000000000000000000000000000000000000000000000000000600052604160045260246000fd5b60405190808252806020026020018201604052801561218657816020015b612173613f4d565b81526020019060019003908161216b5790505b50905060005b6121966001613f29565b81101561235757600260008281526020019081526020016000206040518060a0016040529081600082015481526020016001820160009054906101000a900473ffffffffffffffffffffffffffffffffffffffff1673ffffffffffffffffffffffffffffffffffffffff1673ffffffffffffffffffffffffffffffffffffffff1681526020016002820160009054906101000a900473ffffffffffffffffffffffffffffffffffffffff1673ffffffffffffffffffffffffffffffffffffffff1673ffffffffffffffffffffffffffffffffffffffff168152602001600382015481526020016004820160009054906101000a900460ff1660058111156122c6577f4e487b7100000000000000000000000000000000000000000000000000000000600052602160045260246000fd5b60058111156122fe577f4e487b7100000000000000000000000000000000000000000000000000000000600052602160045260246000fd5b8152505082828151811061233b577f4e487b7100000000000000000000000000000000000000000000000000000000600052603260045260246000fd5b60200260200101819052508061235090614d77565b905061218c565b508091505090565b600061236b6001613f29565b905090565b6060600061237e6000613f29565b67ffffffffffffffff8111156123bd577f4e487b7100000000000000000000000000000000000000000000000000000000600052604160045260246000fd5b6040519080825280602002602001820160405280156123eb5781602001602082028036833780820191505090505b50905060005b6123fb6000613f29565b8110156124ba576005600082815260200190815260200160002060009054906101000a900473ffffffffffffffffffffffffffffffffffffffff1682828151811061246f577f4e487b7100000000000000000000000000000000000000000000000000000000600052603260045260246000fd5b602002602001019073ffffffffffffffffffffffffffffffffffffffff16908173ffffffffffffffffffffffffffffffffffffffff1681525050806124b390614d77565b90506123f1565b508091505090565b806124cd6001613f29565b81111561250f576040517f08c379a000000000000000000000000000000000000000000000000000000000815260040161250690614bf2565b60405180910390fd5b813373ffffffffffffffffffffffffffffffffffffffff166002600083815260200190815260200160002060010160009054906101000a900473ffffffffffffffffffffffffffffffffffffffff1673ffffffffffffffffffffffffffffffffffffffff16146125b4576040517f08c379a00000000000000000000000000000000000000000000000000000000081526004016125ab90614a92565b60405180910390fd5b6000600260008581526020019081526020016000206040518060a0016040529081600082015481526020016001820160009054906101000a900473ffffffffffffffffffffffffffffffffffffffff1673ffffffffffffffffffffffffffffffffffffffff1673ffffffffffffffffffffffffffffffffffffffff1681526020016002820160009054906101000a900473ffffffffffffffffffffffffffffffffffffffff1673ffffffffffffffffffffffffffffffffffffffff1673ffffffffffffffffffffffffffffffffffffffff168152602001600382015481526020016004820160009054906101000a900460ff1660058111156126df577f4e487b7100000000000000000000000000000000000000000000000000000000600052602160045260246000fd5b6005811115612717577f4e487b7100000000000000000000000000000000000000000000000000000000600052602160045260246000fd5b81525050905060016005811115612757577f4e487b7100000000000000000000000000000000000000000000000000000000600052602160045260246000fd5b81608001516005811115612794577f4e487b7100000000000000000000000000000000000000000000000000000000600052602160045260246000fd5b146127d4576040517f08c379a00000000000000000000000000000000000000000000000000000000081526004016127cb90614bd2565b60405180910390fd5b600081606001519050600082604001519050600283608001906005811115612825577f4e487b7100000000000000000000000000000000000000000000000000000000600052602160045260246000fd5b9081600581111561285f577f4e487b7100000000000000000000000000000000000000000000000000000000600052602160045260246000fd5b8152505082600260008881526020019081526020016000206000820151816000015560208201518160010160006101000a81548173ffffffffffffffffffffffffffffffffffffffff021916908373ffffffffffffffffffffffffffffffffffffffff16021790555060408201518160020160006101000a81548173ffffffffffffffffffffffffffffffffffffffff021916908373ffffffffffffffffffffffffffffffffffffffff1602179055506060820151816003015560808201518160040160006101000a81548160ff0219169083600581111561296a577f4e487b7100000000000000000000000000000000000000000000000000000000600052602160045260246000fd5b02179055509050507ff29c49891c531905f19a342b02854f2f6055275bb7ccf2c3cb101ae5565e0825836040516129a19190614c12565b60405180910390a160086000878152602001908152602001600020604051806040016040528060026005811115612a01577f4e487b7100000000000000000000000000000000000000000000000000000000600052602160045260246000fd5b815260200142815250908060018154018082558091505060019003906000526020600020906002020160009091909190915060008201518160000160006101000a81548160ff02191690836005811115612a84577f4e487b7100000000000000000000000000000000000000000000000000000000600052602160045260246000fd5b02179055506020820151816001015550508073ffffffffffffffffffffffffffffffffffffffff166108fc839081150290604051600060405180830381858888f19350505050158015612adb573d6000803e3d6000fd5b50505050505050565b7f000000000000000000000000000000000000000000000000000000000000000081565b606081612b156001613f29565b811115612b57576040517f08c379a0000000000000000000000000000000000000000000000000000000008152600401612b4e90614bf2565b60405180910390fd5b60086000848152602001908152602001600020805480602002602001604051908101604052809291908181526020016000905b82821015612c4d57838290600052602060002090600202016040518060400160405290816000820160009054906101000a900460ff166005811115612bf8577f4e487b7100000000000000000000000000000000000000000000000000000000600052602160045260246000fd5b6005811115612c30577f4e487b7100000000000000000000000000000000000000000000000000000000600052602160045260246000fd5b815260200160018201548152505081526020019060010190612b8a565b50505050915050919050565b612c61613f4d565b81612c6c6001613f29565b811115612cae576040517f08c379a0000000000000000000000000000000000000000000000000000000008152600401612ca590614bf2565b60405180910390fd5b600260008481526020019081526020016000206040518060a0016040529081600082015481526020016001820160009054906101000a900473ffffffffffffffffffffffffffffffffffffffff1673ffffffffffffffffffffffffffffffffffffffff1673ffffffffffffffffffffffffffffffffffffffff1681526020016002820160009054906101000a900473ffffffffffffffffffffffffffffffffffffffff1673ffffffffffffffffffffffffffffffffffffffff1673ffffffffffffffffffffffffffffffffffffffff168152602001600382015481526020016004820160009054906101000a900460ff166005811115612dd7577f4e487b7100000000000000000000000000000000000000000000000000000000600052602160045260246000fd5b6005811115612e0f577f4e487b7100000000000000000000000000000000000000000000000000000000600052602160045260246000fd5b81525050915050919050565b80612e266001613f29565b811115612e68576040517f08c379a0000000000000000000000000000000000000000000000000000000008152600401612e5f90614bf2565b60405180910390fd5b813373ffffffffffffffffffffffffffffffffffffffff166002600083815260200190815260200160002060010160009054906101000a900473ffffffffffffffffffffffffffffffffffffffff1673ffffffffffffffffffffffffffffffffffffffff1614612f0d576040517f08c379a0000000000000000000000000000000000000000000000000000000008152600401612f0490614a92565b60405180910390fd5b6000600260008581526020019081526020016000206040518060a0016040529081600082015481526020016001820160009054906101000a900473ffffffffffffffffffffffffffffffffffffffff1673ffffffffffffffffffffffffffffffffffffffff1673ffffffffffffffffffffffffffffffffffffffff1681526020016002820160009054906101000a900473ffffffffffffffffffffffffffffffffffffffff1673ffffffffffffffffffffffffffffffffffffffff1673ffffffffffffffffffffffffffffffffffffffff168152602001600382015481526020016004820160009054906101000a900460ff166005811115613038577f4e487b7100000000000000000000000000000000000000000000000000000000600052602160045260246000fd5b6005811115613070577f4e487b7100000000000000000000000000000000000000000000000000000000600052602160045260246000fd5b815250509050600060058111156130b0577f4e487b7100000000000000000000000000000000000000000000000000000000600052602160045260246000fd5b816080015160058111156130ed577f4e487b7100000000000000000000000000000000000000000000000000000000600052602160045260246000fd5b148061316d57506001600581111561312e577f4e487b7100000000000000000000000000000000000000000000000000000000600052602160045260246000fd5b8160800151600581111561316b577f4e487b7100000000000000000000000000000000000000000000000000000000600052602160045260246000fd5b145b806131ec5750600260058111156131ad577f4e487b7100000000000000000000000000000000000000000000000000000000600052602160045260246000fd5b816080015160058111156131ea577f4e487b7100000000000000000000000000000000000000000000000000000000600052602160045260246000fd5b145b61322b576040517f08c379a000000000000000000000000000000000000000000000000000000000815260040161322290614af2565b60405180910390fd5b60006005811115613265577f4e487b7100000000000000000000000000000000000000000000000000000000600052602160045260246000fd5b816080015160058111156132a2577f4e487b7100000000000000000000000000000000000000000000000000000000600052602160045260246000fd5b1415613696576005816080019060058111156132e7577f4e487b7100000000000000000000000000000000000000000000000000000000600052602160045260246000fd5b90816005811115613321577f4e487b7100000000000000000000000000000000000000000000000000000000600052602160045260246000fd5b8152505080600260008681526020019081526020016000206000820151816000015560208201518160010160006101000a81548173ffffffffffffffffffffffffffffffffffffffff021916908373ffffffffffffffffffffffffffffffffffffffff16021790555060408201518160020160006101000a81548173ffffffffffffffffffffffffffffffffffffffff021916908373ffffffffffffffffffffffffffffffffffffffff1602179055506060820151816003015560808201518160040160006101000a81548160ff0219169083600581111561342c577f4e487b7100000000000000000000000000000000000000000000000000000000600052602160045260246000fd5b02179055509050507fe4abc940b5524be9ddb12bce78b2c90d7a2cf10a9baea081b6fb59df6f944dbc816040516134639190614c12565b60405180910390a1600860008581526020019081526020016000206040518060400160405280600460058111156134c3577f4e487b7100000000000000000000000000000000000000000000000000000000600052602160045260246000fd5b815260200142815250908060018154018082558091505060019003906000526020600020906002020160009091909190915060008201518160000160006101000a81548160ff02191690836005811115613546577f4e487b7100000000000000000000000000000000000000000000000000000000600052602160045260246000fd5b02179055506020820151816001015550506008600085815260200190815260200160002060405180604001604052806005808111156135ae577f4e487b7100000000000000000000000000000000000000000000000000000000600052602160045260246000fd5b815260200142815250908060018154018082558091505060019003906000526020600020906002020160009091909190915060008201518160000160006101000a81548160ff02191690836005811115613631577f4e487b7100000000000000000000000000000000000000000000000000000000600052602160045260246000fd5b0217905550602082015181600101555050806020015173ffffffffffffffffffffffffffffffffffffffff166108fc82606001519081150290604051600060405180830381858888f19350505050158015613690573d6000803e3d6000fd5b50613946565b6004816080019060058111156136d5577f4e487b7100000000000000000000000000000000000000000000000000000000600052602160045260246000fd5b9081600581111561370f577f4e487b7100000000000000000000000000000000000000000000000000000000600052602160045260246000fd5b8152505080600260008681526020019081526020016000206000820151816000015560208201518160010160006101000a81548173ffffffffffffffffffffffffffffffffffffffff021916908373ffffffffffffffffffffffffffffffffffffffff16021790555060408201518160020160006101000a81548173ffffffffffffffffffffffffffffffffffffffff021916908373ffffffffffffffffffffffffffffffffffffffff1602179055506060820151816003015560808201518160040160006101000a81548160ff0219169083600581111561381a577f4e487b7100000000000000000000000000000000000000000000000000000000600052602160045260246000fd5b02179055509050507f66494901f6d8103f9e520ebfae3e91ccbdbfb608805cae99cebc1209eafa45f0816040516138519190614c12565b60405180910390a1600860008581526020019081526020016000206040518060400160405280600460058111156138b1577f4e487b7100000000000000000000000000000000000000000000000000000000600052602160045260246000fd5b815260200142815250908060018154018082558091505060019003906000526020600020906002020160009091909190915060008201518160000160006101000a81548160ff02191690836005811115613934577f4e487b7100000000000000000000000000000000000000000000000000000000600052602160045260246000fd5b02179055506020820151816001015550505b50505050565b80600460008273ffffffffffffffffffffffffffffffffffffffff1673ffffffffffffffffffffffffffffffffffffffff16815260200190815260200160002060009054906101000a900460ff166139d9576040517f08c379a00000000000000000000000000000000000000000000000000000000081526004016139d090614a32565b60405180910390fd5b600460003373ffffffffffffffffffffffffffffffffffffffff1673ffffffffffffffffffffffffffffffffffffffff16815260200190815260200160002060009054906101000a900460ff1615613a66576040517f08c379a0000000000000000000000000000000000000000000000000000000008152600401613a5d90614b92565b60405180910390fd5b60003411613aa9576040517f08c379a0000000000000000000000000000000000000000000000000000000008152600401613aa090614b52565b60405180910390fd5b6000339050600360008273ffffffffffffffffffffffffffffffffffffffff1673ffffffffffffffffffffffffffffffffffffffff16815260200190815260200160002060009054906101000a900460ff16613b58576001600360008373ffffffffffffffffffffffffffffffffffffffff1673ffffffffffffffffffffffffffffffffffffffff16815260200190815260200160002060006101000a81548160ff0219169083151502179055505b6000613b646001613f29565b905060086000828152602001908152602001600020604051806040016040528060006005811115613bbe577f4e487b7100000000000000000000000000000000000000000000000000000000600052602160045260246000fd5b815260200142815250908060018154018082558091505060019003906000526020600020906002020160009091909190915060008201518160000160006101000a81548160ff02191690836005811115613c41577f4e487b7100000000000000000000000000000000000000000000000000000000600052602160045260246000fd5b021790555060208201518160010155505060006040518060a001604052808381526020018473ffffffffffffffffffffffffffffffffffffffff1681526020018673ffffffffffffffffffffffffffffffffffffffff16815260200134815260200160006005811115613cdd577f4e487b7100000000000000000000000000000000000000000000000000000000600052602160045260246000fd5b815250905080600260008481526020019081526020016000206000820151816000015560208201518160010160006101000a81548173ffffffffffffffffffffffffffffffffffffffff021916908373ffffffffffffffffffffffffffffffffffffffff16021790555060408201518160020160006101000a81548173ffffffffffffffffffffffffffffffffffffffff021916908373ffffffffffffffffffffffffffffffffffffffff1602179055506060820151816003015560808201518160040160006101000a81548160ff02191690836005811115613de9577f4e487b7100000000000000000000000000000000000000000000000000000000600052602160045260246000fd5b0217905550905050600660008473ffffffffffffffffffffffffffffffffffffffff1673ffffffffffffffffffffffffffffffffffffffff168152602001908152602001600020829080600181540180825580915050600190039060005260206000200160009091909190915055600760008673ffffffffffffffffffffffffffffffffffffffff1673ffffffffffffffffffffffffffffffffffffffff168152602001908152602001600020829080600181540180825580915050600190039060005260206000200160009091909190915055613ec76001613f37565b7f0bfcf83939c39dc1f2abaa43e6796d697726666dcc2a160e743e7922c332e89081604051613ef69190614c12565b60405180910390a15050505050565b7f000000000000000000000000000000000000000000000000000000000000000081565b600081600001549050919050565b6001816000016000828254019250508190555050565b6040518060a0016040528060008152602001600073ffffffffffffffffffffffffffffffffffffffff168152602001600073ffffffffffffffffffffffffffffffffffffffff1681526020016000815260200160006005811115613fda577f4e487b7100000000000000000000000000000000000000000000000000000000600052602160045260246000fd5b81525090565b600081359050613fef81614e32565b92915050565b60008135905061400481614e49565b92915050565b60008135905061401981614e60565b92915050565b60006020828403121561403157600080fd5b600061403f84828501613fe0565b91505092915050565b60006020828403121561405a57600080fd5b600061406884828501613ff5565b91505092915050565b60006020828403121561408357600080fd5b60006140918482850161400a565b91505092915050565b600080604083850312156140ad57600080fd5b60006140bb8582860161400a565b92505060206140cc8582860161400a565b9150509250929050565b60006140e2838361412d565b60208301905092915050565b60006140fa8383614894565b60408301905092915050565b600061411283836148c3565b60a08301905092915050565b61412781614d16565b82525050565b61413681614d04565b82525050565b61414581614d04565b82525050565b600061415682614c78565b6141608185614cc0565b935061416b83614c48565b8060005b8381101561419c57815161418388826140d6565b975061418e83614c99565b92505060018101905061416f565b5085935050505092915050565b60006141b482614c83565b6141be8185614cd1565b93506141c983614c58565b8060005b838110156141fa5781516141e188826140ee565b97506141ec83614ca6565b9250506001810190506141cd565b5085935050505092915050565b600061421282614c8e565b61421c8185614ce2565b935061422783614c68565b8060005b8381101561425857815161423f8882614106565b975061424a83614cb3565b92505060018101905061422b565b5085935050505092915050565b61426e81614d65565b82525050565b6000614281603483614cf3565b91507f4552524f523a20546869732073656c6c65722069736e2774207265676973746560008301527f72656420696e206f757220706c6174666f726d2e0000000000000000000000006020830152604082019050919050565b60006142e7602083614cf3565b91507f4552524f523a20596f752061726520616c726561647920612073656c6c65722e6000830152602082019050919050565b6000614327602b83614cf3565b91507f4552524f523a20596f75277265206e6f74207468652073656c6c6572206f662060008301527f74686973206f726465722e0000000000000000000000000000000000000000006020830152604082019050919050565b600061438d602a83614cf3565b91507f4552524f523a20596f75277265206e6f7420746865206275796572206f66207460008301527f686973206f726465722e000000000000000000000000000000000000000000006020830152604082019050919050565b60006143f3602383614cf3565b91507f4552524f523a20596f752063616e27742064656c6574652074686973206f726460008301527f65722e00000000000000000000000000000000000000000000000000000000006020830152604082019050919050565b6000614459604783614cf3565b91507f4552524f523a2054686520616d6f756e7420796f752077616e74656420746f2060008301527f73656e64206973206e6f7420657175616c20746f20746865206f72646572277360208301527f2070726963652e000000000000000000000000000000000000000000000000006040830152606082019050919050565b60006144e5602b83614cf3565b91507f4552524f523a20596f752063616e27742061736b20726566756e6420666f722060008301527f74686973206f726465722e0000000000000000000000000000000000000000006020830152604082019050919050565b600061454b602183614cf3565b91507f4552524f523a20596f752063616e277420736869702074686973206f7264657260008301527f2e000000000000000000000000000000000000000000000000000000000000006020830152604082019050919050565b60006145b1603383614cf3565b91507f4552524f523a20596f752061726520612062757965722c20706c65617365207560008301527f736520616e6f7468657220616464726573732e000000000000000000000000006020830152604082019050919050565b6000614617602683614cf3565b91507f4552524f523a20546865206f7264657220616d6f756e742063616e277420626560008301527f206e756c6c2e00000000000000000000000000000000000000000000000000006020830152604082019050919050565b600061467d603383614cf3565b91507f4552524f523a20546869732075736572206973206e6f7420726567697374657260008301527f656420696e206f757220706c6174666f726d2e000000000000000000000000006020830152604082019050919050565b60006146e3604283614cf3565b91507f4552524f523a20596f752061726520726567697374657265642061732061207360008301527f656c6c65722e20506c656173652075736520616e6f746865722061646472657360208301527f732e0000000000000000000000000000000000000000000000000000000000006040830152606082019050919050565b600061476f603183614cf3565b91507f4552524f523a20596f752063616e277420706572666f726d206120726566756e60008301527f6420666f722074686973206f726465722e0000000000000000000000000000006020830152604082019050919050565b60006147d5602483614cf3565b91507f4552524f523a20596f752063616e277420636f6e6669726d2074686973206f7260008301527f6465722e000000000000000000000000000000000000000000000000000000006020830152604082019050919050565b600061483b602183614cf3565b91507f4552524f523a2054686973206f7264657220646f6573206e6f7420657869737460008301527f2e000000000000000000000000000000000000000000000000000000000000006020830152604082019050919050565b6040820160008201516148aa6000850182614265565b5060208201516148bd6020850182614993565b50505050565b60a0820160008201516148d96000850182614993565b5060208201516148ec602085018261411e565b5060408201516148ff604085018261411e565b5060608201516149126060850182614993565b5060808201516149256080850182614265565b50505050565b60a0820160008201516149416000850182614993565b506020820151614954602085018261411e565b506040820151614967604085018261411e565b50606082015161497a6060850182614993565b50608082015161498d6080850182614265565b50505050565b61499c81614d5b565b82525050565b6149ab81614d5b565b82525050565b60006020820190506149c6600083018461413c565b92915050565b600060208201905081810360008301526149e6818461414b565b905092915050565b60006020820190508181036000830152614a0881846141a9565b905092915050565b60006020820190508181036000830152614a2a8184614207565b905092915050565b60006020820190508181036000830152614a4b81614274565b9050919050565b60006020820190508181036000830152614a6b816142da565b9050919050565b60006020820190508181036000830152614a8b8161431a565b9050919050565b60006020820190508181036000830152614aab81614380565b9050919050565b60006020820190508181036000830152614acb816143e6565b9050919050565b60006020820190508181036000830152614aeb8161444c565b9050919050565b60006020820190508181036000830152614b0b816144d8565b9050919050565b60006020820190508181036000830152614b2b8161453e565b9050919050565b60006020820190508181036000830152614b4b816145a4565b9050919050565b60006020820190508181036000830152614b6b8161460a565b9050919050565b60006020820190508181036000830152614b8b81614670565b9050919050565b60006020820190508181036000830152614bab816146d6565b9050919050565b60006020820190508181036000830152614bcb81614762565b9050919050565b60006020820190508181036000830152614beb816147c8565b9050919050565b60006020820190508181036000830152614c0b8161482e565b9050919050565b600060a082019050614c27600083018461492b565b92915050565b6000602082019050614c4260008301846149a2565b92915050565b6000819050602082019050919050565b6000819050602082019050919050565b6000819050602082019050919050565b600081519050919050565b600081519050919050565b600081519050919050565b6000602082019050919050565b6000602082019050919050565b6000602082019050919050565b600082825260208201905092915050565b600082825260208201905092915050565b600082825260208201905092915050565b600082825260208201905092915050565b6000614d0f82614d3b565b9050919050565b6000614d2182614d3b565b9050919050565b6000819050614d3682614e1e565b919050565b600073ffffffffffffffffffffffffffffffffffffffff82169050919050565b6000819050919050565b6000614d7082614d28565b9050919050565b6000614d8282614d5b565b91507fffffffffffffffffffffffffffffffffffffffffffffffffffffffffffffffff821415614db557614db4614dc0565b5b600182019050919050565b7f4e487b7100000000000000000000000000000000000000000000000000000000600052601160045260246000fd5b7f4e487b7100000000000000000000000000000000000000000000000000000000600052602160045260246000fd5b60068110614e2f57614e2e614def565b5b50565b614e3b81614d04565b8114614e4657600080fd5b50565b614e5281614d16565b8114614e5d57600080fd5b50565b614e6981614d5b565b8114614e7457600080fd5b5056fea264697066735822122041855e69348cf2c609eeede3b6cb1ae2f8ea95ad19ce01e2e95e125119c6808264736f6c63430008000033",
  "linkReferences": {},
  "deployedLinkReferences": {}
}