{
  "_format": "hh-sol-artifact-1",
  "contractName": "ShopChain",
  "sourceName": "contracts/ShopChain.sol",
  "contractAddress": "0x82d11155789172cCFD20eCE552033C678b5f6058",
  "abi": [
    {
      "inputs": [],
      "stateMutability": "nonpayable",
      "type": "constructor"
    },
    {
      "anonymous": false,
      "inputs": [
        {
          "indexed": false,
          "internalType": "address",
          "name": "",
          "type": "address"
        }
      ],
      "name": "DataFeedSet",
      "type": "event"
    },
    {
      "anonymous": false,
      "inputs": [
        {
          "components": [
            {
              "internalType": "uint256",
              "name": "id",
              "type": "uint256"
            },
            {
              "internalType": "address payable",
              "name": "buyer",
              "type": "address"
            },
            {
              "internalType": "address payable",
              "name": "seller",
              "type": "address"
            },
            {
              "internalType": "uint256",
              "name": "amount",
              "type": "uint256"
            },
            {
              "internalType": "enum ShopChain.State",
              "name": "state",
              "type": "uint8"
            }
          ],
          "indexed": false,
          "internalType": "struct ShopChain.Order",
          "name": "",
          "type": "tuple"
        }
      ],
      "name": "OrderConfirmed",
      "type": "event"
    },
    {
      "anonymous": false,
      "inputs": [
        {
          "components": [
            {
              "internalType": "uint256",
              "name": "id",
              "type": "uint256"
            },
            {
              "internalType": "address payable",
              "name": "buyer",
              "type": "address"
            },
            {
              "internalType": "address payable",
              "name": "seller",
              "type": "address"
            },
            {
              "internalType": "uint256",
              "name": "amount",
              "type": "uint256"
            },
            {
              "internalType": "enum ShopChain.State",
              "name": "state",
              "type": "uint8"
            }
          ],
          "indexed": false,
          "internalType": "struct ShopChain.Order",
          "name": "",
          "type": "tuple"
        }
      ],
      "name": "OrderCreated",
      "type": "event"
    },
    {
      "anonymous": false,
      "inputs": [
        {
          "components": [
            {
              "internalType": "uint256",
              "name": "id",
              "type": "uint256"
            },
            {
              "internalType": "address payable",
              "name": "buyer",
              "type": "address"
            },
            {
              "internalType": "address payable",
              "name": "seller",
              "type": "address"
            },
            {
              "internalType": "uint256",
              "name": "amount",
              "type": "uint256"
            },
            {
              "internalType": "enum ShopChain.State",
              "name": "state",
              "type": "uint8"
            }
          ],
          "indexed": false,
          "internalType": "struct ShopChain.Order",
          "name": "",
          "type": "tuple"
        }
      ],
      "name": "OrderDeleted",
      "type": "event"
    },
    {
      "anonymous": false,
      "inputs": [
        {
          "components": [
            {
              "internalType": "uint256",
              "name": "id",
              "type": "uint256"
            },
            {
              "internalType": "address payable",
              "name": "buyer",
              "type": "address"
            },
            {
              "internalType": "address payable",
              "name": "seller",
              "type": "address"
            },
            {
              "internalType": "uint256",
              "name": "amount",
              "type": "uint256"
            },
            {
              "internalType": "enum ShopChain.State",
              "name": "state",
              "type": "uint8"
            }
          ],
          "indexed": false,
          "internalType": "struct ShopChain.Order",
          "name": "",
          "type": "tuple"
        }
      ],
      "name": "OrderRefunded",
      "type": "event"
    },
    {
      "anonymous": false,
      "inputs": [
        {
          "components": [
            {
              "internalType": "uint256",
              "name": "id",
              "type": "uint256"
            },
            {
              "internalType": "address payable",
              "name": "buyer",
              "type": "address"
            },
            {
              "internalType": "address payable",
              "name": "seller",
              "type": "address"
            },
            {
              "internalType": "uint256",
              "name": "amount",
              "type": "uint256"
            },
            {
              "internalType": "enum ShopChain.State",
              "name": "state",
              "type": "uint8"
            }
          ],
          "indexed": false,
          "internalType": "struct ShopChain.Order",
          "name": "",
          "type": "tuple"
        }
      ],
      "name": "OrderShipped",
      "type": "event"
    },
    {
      "anonymous": false,
      "inputs": [
        {
          "components": [
            {
              "internalType": "uint256",
              "name": "id",
              "type": "uint256"
            },
            {
              "internalType": "address payable",
              "name": "buyer",
              "type": "address"
            },
            {
              "internalType": "address payable",
              "name": "seller",
              "type": "address"
            },
            {
              "internalType": "uint256",
              "name": "amount",
              "type": "uint256"
            },
            {
              "internalType": "enum ShopChain.State",
              "name": "state",
              "type": "uint8"
            }
          ],
          "indexed": false,
          "internalType": "struct ShopChain.Order",
          "name": "",
          "type": "tuple"
        }
      ],
      "name": "RefundAsked",
      "type": "event"
    },
    {
      "anonymous": false,
      "inputs": [
        {
          "indexed": false,
          "internalType": "address",
          "name": "",
          "type": "address"
        }
      ],
      "name": "SellerRegistered",
      "type": "event"
    },
    {
      "inputs": [
        {
          "internalType": "uint256",
          "name": "orderId",
          "type": "uint256"
        }
      ],
      "name": "askRefund",
      "outputs": [],
      "stateMutability": "nonpayable",
      "type": "function"
    },
    {
      "inputs": [
        {
          "internalType": "uint256",
          "name": "orderId",
          "type": "uint256"
        }
      ],
      "name": "confirmOrder",
      "outputs": [],
      "stateMutability": "nonpayable",
      "type": "function"
    },
    {
      "inputs": [],
      "name": "contractAddress",
      "outputs": [
        {
          "internalType": "address",
          "name": "",
          "type": "address"
        }
      ],
      "stateMutability": "view",
      "type": "function"
    },
    {
      "inputs": [
        {
          "internalType": "address payable",
          "name": "seller",
          "type": "address"
        },
        {
          "internalType": "uint256",
          "name": "amount",
          "type": "uint256"
        }
      ],
      "name": "createOrder",
      "outputs": [],
      "stateMutability": "payable",
      "type": "function"
    },
    {
      "inputs": [
        {
          "internalType": "uint256",
          "name": "orderId",
          "type": "uint256"
        }
      ],
      "name": "deleteOrder",
      "outputs": [],
      "stateMutability": "nonpayable",
      "type": "function"
    },
    {
      "inputs": [],
      "name": "getBalance",
      "outputs": [
        {
          "internalType": "uint256",
          "name": "",
          "type": "uint256"
        }
      ],
      "stateMutability": "view",
      "type": "function"
    },
    {
      "inputs": [
        {
          "internalType": "uint256",
          "name": "orderId",
          "type": "uint256"
        }
      ],
      "name": "getLogsOfOrder",
      "outputs": [
        {
          "components": [
            {
              "internalType": "enum ShopChain.State",
              "name": "state",
              "type": "uint8"
            },
            {
              "internalType": "uint256",
              "name": "timestamp",
              "type": "uint256"
            }
          ],
          "internalType": "struct ShopChain.Log[]",
          "name": "",
          "type": "tuple[]"
        }
      ],
      "stateMutability": "view",
      "type": "function"
    },
    {
      "inputs": [
        {
          "internalType": "uint256",
          "name": "id",
          "type": "uint256"
        }
      ],
      "name": "getOrder",
      "outputs": [
        {
          "components": [
            {
              "internalType": "uint256",
              "name": "id",
              "type": "uint256"
            },
            {
              "internalType": "address payable",
              "name": "buyer",
              "type": "address"
            },
            {
              "internalType": "address payable",
              "name": "seller",
              "type": "address"
            },
            {
              "internalType": "uint256",
              "name": "amount",
              "type": "uint256"
            },
            {
              "internalType": "enum ShopChain.State",
              "name": "state",
              "type": "uint8"
            }
          ],
          "internalType": "struct ShopChain.Order",
          "name": "",
          "type": "tuple"
        }
      ],
      "stateMutability": "view",
      "type": "function"
    },
    {
      "inputs": [],
      "name": "getOrders",
      "outputs": [
        {
          "components": [
            {
              "internalType": "uint256",
              "name": "id",
              "type": "uint256"
            },
            {
              "internalType": "address payable",
              "name": "buyer",
              "type": "address"
            },
            {
              "internalType": "address payable",
              "name": "seller",
              "type": "address"
            },
            {
              "internalType": "uint256",
              "name": "amount",
              "type": "uint256"
            },
            {
              "internalType": "enum ShopChain.State",
              "name": "state",
              "type": "uint8"
            }
          ],
          "internalType": "struct ShopChain.Order[]",
          "name": "",
          "type": "tuple[]"
        }
      ],
      "stateMutability": "view",
      "type": "function"
    },
    {
      "inputs": [
        {
          "internalType": "address",
          "name": "user",
          "type": "address"
        }
      ],
      "name": "getOrdersOfUser",
      "outputs": [
        {
          "components": [
            {
              "internalType": "uint256",
              "name": "id",
              "type": "uint256"
            },
            {
              "internalType": "address payable",
              "name": "buyer",
              "type": "address"
            },
            {
              "internalType": "address payable",
              "name": "seller",
              "type": "address"
            },
            {
              "internalType": "uint256",
              "name": "amount",
              "type": "uint256"
            },
            {
              "internalType": "enum ShopChain.State",
              "name": "state",
              "type": "uint8"
            }
          ],
          "internalType": "struct ShopChain.Order[]",
          "name": "",
          "type": "tuple[]"
        }
      ],
      "stateMutability": "view",
      "type": "function"
    },
    {
      "inputs": [],
      "name": "getSellers",
      "outputs": [
        {
          "internalType": "address[]",
          "name": "",
          "type": "address[]"
        }
      ],
      "stateMutability": "view",
      "type": "function"
    },
    {
      "inputs": [],
      "name": "getTotalOrders",
      "outputs": [
        {
          "internalType": "uint256",
          "name": "",
          "type": "uint256"
        }
      ],
      "stateMutability": "view",
      "type": "function"
    },
    {
      "inputs": [],
      "name": "getTotalSellers",
      "outputs": [
        {
          "internalType": "uint256",
          "name": "",
          "type": "uint256"
        }
      ],
      "stateMutability": "view",
      "type": "function"
    },
    {
      "inputs": [],
      "name": "owner",
      "outputs": [
        {
          "internalType": "address",
          "name": "",
          "type": "address"
        }
      ],
      "stateMutability": "view",
      "type": "function"
    },
    {
      "inputs": [
        {
          "internalType": "uint256",
          "name": "orderId",
          "type": "uint256"
        },
        {
          "internalType": "uint256",
          "name": "amount",
          "type": "uint256"
        }
      ],
      "name": "refundBuyer",
      "outputs": [],
      "stateMutability": "payable",
      "type": "function"
    },
    {
      "inputs": [],
      "name": "registerAsSeller",
      "outputs": [],
      "stateMutability": "nonpayable",
      "type": "function"
    },
    {
      "inputs": [
        {
          "internalType": "uint256",
          "name": "orderId",
          "type": "uint256"
        }
      ],
      "name": "shipOrder",
      "outputs": [],
      "stateMutability": "nonpayable",
      "type": "function"
    },
    {
      "stateMutability": "payable",
      "type": "receive"
    }
  ],
  "bytecode": "0x60c06040523073ffffffffffffffffffffffffffffffffffffffff1660809073ffffffffffffffffffffffffffffffffffffffff1660601b81525034801561004657600080fd5b503373ffffffffffffffffffffffffffffffffffffffff1660a08173ffffffffffffffffffffffffffffffffffffffff1660601b8152505060805160601c60a05160601c614c816100b06000396000612f920152600081816118dd0152613dfa0152614c816000f3fe6080604052600436106101025760003560e01c8063375f16a7116100955780638da5cb5b116100645780638da5cb5b146102ec5780639ff41c9914610317578063d09ef24114610354578063e47cad7514610391578063f6b4dfb4146103ba57610109565b8063375f16a7146102515780636c16b5451461027c5780637ee454cb146102985780638ac7d79c146102c357610109565b8063128b8532116100d1578063128b8532146101bb578063194c302c146101d2578063245cd401146101fb5780632e2dc43e1461022657610109565b8063044ce3081461010e5780630d4b18e81461012a57806311a003271461016757806312065fe01461019057610109565b3661010957005b600080fd5b61012860048036038101906101239190613fa0565b6103e5565b005b34801561013657600080fd5b50610151600480360381019061014c9190613f12565b610a3d565b60405161015e9190614824565b60405180910390f35b34801561017357600080fd5b5061018e60048036038101906101899190613f77565b61123e565b005b34801561019c57600080fd5b506101a56118d9565b6040516101b29190614a01565b60405180910390f35b3480156101c757600080fd5b506101d0611918565b005b3480156101de57600080fd5b506101f960048036038101906101f49190613f77565b611a9b565b005b34801561020757600080fd5b50610210612062565b60405161021d9190614a01565b60405180910390f35b34801561023257600080fd5b5061023b612073565b6040516102489190614824565b60405180910390f35b34801561025d57600080fd5b506102666122d2565b6040516102739190614a01565b60405180910390f35b61029660048036038101906102919190613f3b565b6122e3565b005b3480156102a457600080fd5b506102ad61281c565b6040516102ba91906147e0565b60405180910390f35b3480156102cf57600080fd5b506102ea60048036038101906102e59190613f77565b61296e565b005b3480156102f857600080fd5b50610301612f90565b60405161030e91906147c5565b60405180910390f35b34801561032357600080fd5b5061033e60048036038101906103399190613f77565b612fb4565b60405161034b9190614802565b60405180910390f35b34801561036057600080fd5b5061037b60048036038101906103769190613f77565b613105565b60405161038891906149e6565b60405180910390f35b34801561039d57600080fd5b506103b860048036038101906103b39190613f77565b6132c7565b005b3480156103c657600080fd5b506103cf613df8565b6040516103dc91906147c5565b60405180910390f35b816103f06001613e1c565b811115610432576040517f08c379a0000000000000000000000000000000000000000000000000000000008152600401610429906149c6565b60405180910390fd5b823373ffffffffffffffffffffffffffffffffffffffff166002600083815260200190815260200160002060020160009054906101000a900473ffffffffffffffffffffffffffffffffffffffff1673ffffffffffffffffffffffffffffffffffffffff16146104d7576040517f08c379a00000000000000000000000000000000000000000000000000000000081526004016104ce90614886565b60405180910390fd5b6000600260008681526020019081526020016000206040518060a0016040529081600082015481526020016001820160009054906101000a900473ffffffffffffffffffffffffffffffffffffffff1673ffffffffffffffffffffffffffffffffffffffff1673ffffffffffffffffffffffffffffffffffffffff1681526020016002820160009054906101000a900473ffffffffffffffffffffffffffffffffffffffff1673ffffffffffffffffffffffffffffffffffffffff1673ffffffffffffffffffffffffffffffffffffffff168152602001600382015481526020016004820160009054906101000a900460ff166005811115610602577f4e487b7100000000000000000000000000000000000000000000000000000000600052602160045260246000fd5b600581111561063a577f4e487b7100000000000000000000000000000000000000000000000000000000600052602160045260246000fd5b8152505090506004600581111561067a577f4e487b7100000000000000000000000000000000000000000000000000000000600052602160045260246000fd5b816080015160058111156106b7577f4e487b7100000000000000000000000000000000000000000000000000000000600052602160045260246000fd5b146106f7576040517f08c379a00000000000000000000000000000000000000000000000000000000081526004016106ee90614986565b60405180910390fd5b8060600151841461073d576040517f08c379a0000000000000000000000000000000000000000000000000000000008152600401610734906148e6565b60405180910390fd5b60058160800190600581111561077c577f4e487b7100000000000000000000000000000000000000000000000000000000600052602160045260246000fd5b908160058111156107b6577f4e487b7100000000000000000000000000000000000000000000000000000000600052602160045260246000fd5b8152505080600260008781526020019081526020016000206000820151816000015560208201518160010160006101000a81548173ffffffffffffffffffffffffffffffffffffffff021916908373ffffffffffffffffffffffffffffffffffffffff16021790555060408201518160020160006101000a81548173ffffffffffffffffffffffffffffffffffffffff021916908373ffffffffffffffffffffffffffffffffffffffff1602179055506060820151816003015560808201518160040160006101000a81548160ff021916908360058111156108c1577f4e487b7100000000000000000000000000000000000000000000000000000000600052602160045260246000fd5b02179055509050507fe4abc940b5524be9ddb12bce78b2c90d7a2cf10a9baea081b6fb59df6f944dbc816040516108f891906149e6565b60405180910390a1600860008681526020019081526020016000206040518060400160405280600580811115610957577f4e487b7100000000000000000000000000000000000000000000000000000000600052602160045260246000fd5b815260200142815250908060018154018082558091505060019003906000526020600020906002020160009091909190915060008201518160000160006101000a81548160ff021916908360058111156109da577f4e487b7100000000000000000000000000000000000000000000000000000000600052602160045260246000fd5b0217905550602082015181600101555050806020015173ffffffffffffffffffffffffffffffffffffffff166108fc859081150290604051600060405180830381858888f19350505050158015610a35573d6000803e3d6000fd5b505050505050565b606060008067ffffffffffffffff811115610a81577f4e487b7100000000000000000000000000000000000000000000000000000000600052604160045260246000fd5b604051908082528060200260200182016040528015610aba57816020015b610aa7613e40565b815260200190600190039081610a9f5790505b509050600360008473ffffffffffffffffffffffffffffffffffffffff1673ffffffffffffffffffffffffffffffffffffffff16815260200190815260200160002060009054906101000a900460ff1615610e5b57600660008473ffffffffffffffffffffffffffffffffffffffff1673ffffffffffffffffffffffffffffffffffffffff1681526020019081526020016000208054905067ffffffffffffffff811115610b91577f4e487b7100000000000000000000000000000000000000000000000000000000600052604160045260246000fd5b604051908082528060200260200182016040528015610bca57816020015b610bb7613e40565b815260200190600190039081610baf5790505b50905060005b600660008573ffffffffffffffffffffffffffffffffffffffff1673ffffffffffffffffffffffffffffffffffffffff16815260200190815260200160002080549050811015610e555760026000600660008773ffffffffffffffffffffffffffffffffffffffff1673ffffffffffffffffffffffffffffffffffffffff1681526020019081526020016000208381548110610c95577f4e487b7100000000000000000000000000000000000000000000000000000000600052603260045260246000fd5b906000526020600020015481526020019081526020016000206040518060a0016040529081600082015481526020016001820160009054906101000a900473ffffffffffffffffffffffffffffffffffffffff1673ffffffffffffffffffffffffffffffffffffffff1673ffffffffffffffffffffffffffffffffffffffff1681526020016002820160009054906101000a900473ffffffffffffffffffffffffffffffffffffffff1673ffffffffffffffffffffffffffffffffffffffff1673ffffffffffffffffffffffffffffffffffffffff168152602001600382015481526020016004820160009054906101000a900460ff166005811115610dc4577f4e487b7100000000000000000000000000000000000000000000000000000000600052602160045260246000fd5b6005811115610dfc577f4e487b7100000000000000000000000000000000000000000000000000000000600052602160045260246000fd5b81525050828281518110610e39577f4e487b7100000000000000000000000000000000000000000000000000000000600052603260045260246000fd5b602002602001018190525080610e4e90614b4b565b9050610bd0565b50611235565b600460008473ffffffffffffffffffffffffffffffffffffffff1673ffffffffffffffffffffffffffffffffffffffff16815260200190815260200160002060009054906101000a900460ff16156111f957600760008473ffffffffffffffffffffffffffffffffffffffff1673ffffffffffffffffffffffffffffffffffffffff1681526020019081526020016000208054905067ffffffffffffffff811115610f2f577f4e487b7100000000000000000000000000000000000000000000000000000000600052604160045260246000fd5b604051908082528060200260200182016040528015610f6857816020015b610f55613e40565b815260200190600190039081610f4d5790505b50905060005b600760008573ffffffffffffffffffffffffffffffffffffffff1673ffffffffffffffffffffffffffffffffffffffff168152602001908152602001600020805490508110156111f35760026000600760008773ffffffffffffffffffffffffffffffffffffffff1673ffffffffffffffffffffffffffffffffffffffff1681526020019081526020016000208381548110611033577f4e487b7100000000000000000000000000000000000000000000000000000000600052603260045260246000fd5b906000526020600020015481526020019081526020016000206040518060a0016040529081600082015481526020016001820160009054906101000a900473ffffffffffffffffffffffffffffffffffffffff1673ffffffffffffffffffffffffffffffffffffffff1673ffffffffffffffffffffffffffffffffffffffff1681526020016002820160009054906101000a900473ffffffffffffffffffffffffffffffffffffffff1673ffffffffffffffffffffffffffffffffffffffff1673ffffffffffffffffffffffffffffffffffffffff168152602001600382015481526020016004820160009054906101000a900460ff166005811115611162577f4e487b7100000000000000000000000000000000000000000000000000000000600052602160045260246000fd5b600581111561119a577f4e487b7100000000000000000000000000000000000000000000000000000000600052602160045260246000fd5b815250508282815181106111d7577f4e487b7100000000000000000000000000000000000000000000000000000000600052603260045260246000fd5b6020026020010181905250806111ec90614b4b565b9050610f6e565b50611234565b6040517f08c379a000000000000000000000000000000000000000000000000000000000815260040161122b90614966565b60405180910390fd5b5b80915050919050565b806112496001613e1c565b81111561128b576040517f08c379a0000000000000000000000000000000000000000000000000000000008152600401611282906149c6565b60405180910390fd5b813373ffffffffffffffffffffffffffffffffffffffff166002600083815260200190815260200160002060020160009054906101000a900473ffffffffffffffffffffffffffffffffffffffff1673ffffffffffffffffffffffffffffffffffffffff1614611330576040517f08c379a000000000000000000000000000000000000000000000000000000000815260040161132790614886565b60405180910390fd5b6000600260008581526020019081526020016000206040518060a0016040529081600082015481526020016001820160009054906101000a900473ffffffffffffffffffffffffffffffffffffffff1673ffffffffffffffffffffffffffffffffffffffff1673ffffffffffffffffffffffffffffffffffffffff1681526020016002820160009054906101000a900473ffffffffffffffffffffffffffffffffffffffff1673ffffffffffffffffffffffffffffffffffffffff1673ffffffffffffffffffffffffffffffffffffffff168152602001600382015481526020016004820160009054906101000a900460ff16600581111561145b577f4e487b7100000000000000000000000000000000000000000000000000000000600052602160045260246000fd5b6005811115611493577f4e487b7100000000000000000000000000000000000000000000000000000000600052602160045260246000fd5b815250509050600060058111156114d3577f4e487b7100000000000000000000000000000000000000000000000000000000600052602160045260246000fd5b81608001516005811115611510577f4e487b7100000000000000000000000000000000000000000000000000000000600052602160045260246000fd5b1480611590575060016005811115611551577f4e487b7100000000000000000000000000000000000000000000000000000000600052602160045260246000fd5b8160800151600581111561158e577f4e487b7100000000000000000000000000000000000000000000000000000000600052602160045260246000fd5b145b6115cf576040517f08c379a00000000000000000000000000000000000000000000000000000000081526004016115c6906148c6565b60405180910390fd5b600081606001519050600382608001906005811115611617577f4e487b7100000000000000000000000000000000000000000000000000000000600052602160045260246000fd5b90816005811115611651577f4e487b7100000000000000000000000000000000000000000000000000000000600052602160045260246000fd5b8152505081600260008781526020019081526020016000206000820151816000015560208201518160010160006101000a81548173ffffffffffffffffffffffffffffffffffffffff021916908373ffffffffffffffffffffffffffffffffffffffff16021790555060408201518160020160006101000a81548173ffffffffffffffffffffffffffffffffffffffff021916908373ffffffffffffffffffffffffffffffffffffffff1602179055506060820151816003015560808201518160040160006101000a81548160ff0219169083600581111561175c577f4e487b7100000000000000000000000000000000000000000000000000000000600052602160045260246000fd5b02179055509050507f2267760a98555bb0f97ee96e0fe62f8e95dadf36b987aaa899363b7d6ff03f8d8260405161179391906149e6565b60405180910390a1600860008681526020019081526020016000206040518060400160405280600360058111156117f3577f4e487b7100000000000000000000000000000000000000000000000000000000600052602160045260246000fd5b815260200142815250908060018154018082558091505060019003906000526020600020906002020160009091909190915060008201518160000160006101000a81548160ff02191690836005811115611876577f4e487b7100000000000000000000000000000000000000000000000000000000600052602160045260246000fd5b0217905550602082015181600101555050816020015173ffffffffffffffffffffffffffffffffffffffff166108fc829081150290604051600060405180830381858888f193505050501580156118d1573d6000803e3d6000fd5b505050505050565b60007f000000000000000000000000000000000000000000000000000000000000000073ffffffffffffffffffffffffffffffffffffffff1631905090565b600460003373ffffffffffffffffffffffffffffffffffffffff1673ffffffffffffffffffffffffffffffffffffffff16815260200190815260200160002060009054906101000a900460ff16156119a5576040517f08c379a000000000000000000000000000000000000000000000000000000000815260040161199c90614866565b60405180910390fd5b6001600460003373ffffffffffffffffffffffffffffffffffffffff1673ffffffffffffffffffffffffffffffffffffffff16815260200190815260200160002060006101000a81548160ff0219169083151502179055503360056000611a0c6000613e1c565b815260200190815260200160002060006101000a81548173ffffffffffffffffffffffffffffffffffffffff021916908373ffffffffffffffffffffffffffffffffffffffff160217905550611a626000613e2a565b7f4d97d287a8f631378031b05cb24c876085261ddaa7b8f584477370ef473fbb3d33604051611a9191906147c5565b60405180910390a1565b80611aa66001613e1c565b811115611ae8576040517f08c379a0000000000000000000000000000000000000000000000000000000008152600401611adf906149c6565b60405180910390fd5b813373ffffffffffffffffffffffffffffffffffffffff166002600083815260200190815260200160002060020160009054906101000a900473ffffffffffffffffffffffffffffffffffffffff1673ffffffffffffffffffffffffffffffffffffffff1614611b8d576040517f08c379a0000000000000000000000000000000000000000000000000000000008152600401611b8490614886565b60405180910390fd5b6000600260008581526020019081526020016000206040518060a0016040529081600082015481526020016001820160009054906101000a900473ffffffffffffffffffffffffffffffffffffffff1673ffffffffffffffffffffffffffffffffffffffff1673ffffffffffffffffffffffffffffffffffffffff1681526020016002820160009054906101000a900473ffffffffffffffffffffffffffffffffffffffff1673ffffffffffffffffffffffffffffffffffffffff1673ffffffffffffffffffffffffffffffffffffffff168152602001600382015481526020016004820160009054906101000a900460ff166005811115611cb8577f4e487b7100000000000000000000000000000000000000000000000000000000600052602160045260246000fd5b6005811115611cf0577f4e487b7100000000000000000000000000000000000000000000000000000000600052602160045260246000fd5b81525050905060006005811115611d30577f4e487b7100000000000000000000000000000000000000000000000000000000600052602160045260246000fd5b81608001516005811115611d6d577f4e487b7100000000000000000000000000000000000000000000000000000000600052602160045260246000fd5b14611dad576040517f08c379a0000000000000000000000000000000000000000000000000000000008152600401611da490614926565b60405180910390fd5b600181608001906005811115611dec577f4e487b7100000000000000000000000000000000000000000000000000000000600052602160045260246000fd5b90816005811115611e26577f4e487b7100000000000000000000000000000000000000000000000000000000600052602160045260246000fd5b8152505080600260008681526020019081526020016000206000820151816000015560208201518160010160006101000a81548173ffffffffffffffffffffffffffffffffffffffff021916908373ffffffffffffffffffffffffffffffffffffffff16021790555060408201518160020160006101000a81548173ffffffffffffffffffffffffffffffffffffffff021916908373ffffffffffffffffffffffffffffffffffffffff1602179055506060820151816003015560808201518160040160006101000a81548160ff02191690836005811115611f31577f4e487b7100000000000000000000000000000000000000000000000000000000600052602160045260246000fd5b02179055509050507f3555e7cc004c34a850ba34c02e56afc2ad9410f106cd800dd981874158eb9f9581604051611f6891906149e6565b60405180910390a160086000858152602001908152602001600020604051806040016040528060016005811115611fc8577f4e487b7100000000000000000000000000000000000000000000000000000000600052602160045260246000fd5b815260200142815250908060018154018082558091505060019003906000526020600020906002020160009091909190915060008201518160000160006101000a81548160ff0219169083600581111561204b577f4e487b7100000000000000000000000000000000000000000000000000000000600052602160045260246000fd5b021790555060208201518160010155505050505050565b600061206e6000613e1c565b905090565b606060006120816001613e1c565b67ffffffffffffffff8111156120c0577f4e487b7100000000000000000000000000000000000000000000000000000000600052604160045260246000fd5b6040519080825280602002602001820160405280156120f957816020015b6120e6613e40565b8152602001906001900390816120de5790505b50905060005b6121096001613e1c565b8110156122ca57600260008281526020019081526020016000206040518060a0016040529081600082015481526020016001820160009054906101000a900473ffffffffffffffffffffffffffffffffffffffff1673ffffffffffffffffffffffffffffffffffffffff1673ffffffffffffffffffffffffffffffffffffffff1681526020016002820160009054906101000a900473ffffffffffffffffffffffffffffffffffffffff1673ffffffffffffffffffffffffffffffffffffffff1673ffffffffffffffffffffffffffffffffffffffff168152602001600382015481526020016004820160009054906101000a900460ff166005811115612239577f4e487b7100000000000000000000000000000000000000000000000000000000600052602160045260246000fd5b6005811115612271577f4e487b7100000000000000000000000000000000000000000000000000000000600052602160045260246000fd5b815250508282815181106122ae577f4e487b7100000000000000000000000000000000000000000000000000000000600052603260045260246000fd5b6020026020010181905250806122c390614b4b565b90506120ff565b508091505090565b60006122de6001613e1c565b905090565b81600460008273ffffffffffffffffffffffffffffffffffffffff1673ffffffffffffffffffffffffffffffffffffffff16815260200190815260200160002060009054906101000a900460ff16612370576040517f08c379a000000000000000000000000000000000000000000000000000000000815260040161236790614846565b60405180910390fd5b6000821180156123805750600034115b6123bf576040517f08c379a00000000000000000000000000000000000000000000000000000000081526004016123b690614946565b60405180910390fd5b6000339050600360008273ffffffffffffffffffffffffffffffffffffffff1673ffffffffffffffffffffffffffffffffffffffff16815260200190815260200160002060009054906101000a900460ff1661246e576001600360008373ffffffffffffffffffffffffffffffffffffffff1673ffffffffffffffffffffffffffffffffffffffff16815260200190815260200160002060006101000a81548160ff0219169083151502179055505b600061247a6001613e1c565b9050600860008281526020019081526020016000206040518060400160405280600060058111156124d4577f4e487b7100000000000000000000000000000000000000000000000000000000600052602160045260246000fd5b815260200142815250908060018154018082558091505060019003906000526020600020906002020160009091909190915060008201518160000160006101000a81548160ff02191690836005811115612557577f4e487b7100000000000000000000000000000000000000000000000000000000600052602160045260246000fd5b021790555060208201518160010155505060006040518060a001604052808381526020018473ffffffffffffffffffffffffffffffffffffffff1681526020018773ffffffffffffffffffffffffffffffffffffffff168152602001868152602001600060058111156125f3577f4e487b7100000000000000000000000000000000000000000000000000000000600052602160045260246000fd5b815250905080600260008481526020019081526020016000206000820151816000015560208201518160010160006101000a81548173ffffffffffffffffffffffffffffffffffffffff021916908373ffffffffffffffffffffffffffffffffffffffff16021790555060408201518160020160006101000a81548173ffffffffffffffffffffffffffffffffffffffff021916908373ffffffffffffffffffffffffffffffffffffffff1602179055506060820151816003015560808201518160040160006101000a81548160ff021916908360058111156126ff577f4e487b7100000000000000000000000000000000000000000000000000000000600052602160045260246000fd5b0217905550905050600660008473ffffffffffffffffffffffffffffffffffffffff1673ffffffffffffffffffffffffffffffffffffffff168152602001908152602001600020829080600181540180825580915050600190039060005260206000200160009091909190915055600760008773ffffffffffffffffffffffffffffffffffffffff1673ffffffffffffffffffffffffffffffffffffffff1681526020019081526020016000208290806001815401808255809150506001900390600052602060002001600090919091909150556127dd6001613e2a565b7f0bfcf83939c39dc1f2abaa43e6796d697726666dcc2a160e743e7922c332e8908160405161280c91906149e6565b60405180910390a1505050505050565b6060600061282a6000613e1c565b67ffffffffffffffff811115612869577f4e487b7100000000000000000000000000000000000000000000000000000000600052604160045260246000fd5b6040519080825280602002602001820160405280156128975781602001602082028036833780820191505090505b50905060005b6128a76000613e1c565b811015612966576005600082815260200190815260200160002060009054906101000a900473ffffffffffffffffffffffffffffffffffffffff1682828151811061291b577f4e487b7100000000000000000000000000000000000000000000000000000000600052603260045260246000fd5b602002602001019073ffffffffffffffffffffffffffffffffffffffff16908173ffffffffffffffffffffffffffffffffffffffff16815250508061295f90614b4b565b905061289d565b508091505090565b806129796001613e1c565b8111156129bb576040517f08c379a00000000000000000000000000000000000000000000000000000000081526004016129b2906149c6565b60405180910390fd5b813373ffffffffffffffffffffffffffffffffffffffff166002600083815260200190815260200160002060010160009054906101000a900473ffffffffffffffffffffffffffffffffffffffff1673ffffffffffffffffffffffffffffffffffffffff1614612a60576040517f08c379a0000000000000000000000000000000000000000000000000000000008152600401612a57906148a6565b60405180910390fd5b6000600260008581526020019081526020016000206040518060a0016040529081600082015481526020016001820160009054906101000a900473ffffffffffffffffffffffffffffffffffffffff1673ffffffffffffffffffffffffffffffffffffffff1673ffffffffffffffffffffffffffffffffffffffff1681526020016002820160009054906101000a900473ffffffffffffffffffffffffffffffffffffffff1673ffffffffffffffffffffffffffffffffffffffff1673ffffffffffffffffffffffffffffffffffffffff168152602001600382015481526020016004820160009054906101000a900460ff166005811115612b8b577f4e487b7100000000000000000000000000000000000000000000000000000000600052602160045260246000fd5b6005811115612bc3577f4e487b7100000000000000000000000000000000000000000000000000000000600052602160045260246000fd5b81525050905060016005811115612c03577f4e487b7100000000000000000000000000000000000000000000000000000000600052602160045260246000fd5b81608001516005811115612c40577f4e487b7100000000000000000000000000000000000000000000000000000000600052602160045260246000fd5b14612c80576040517f08c379a0000000000000000000000000000000000000000000000000000000008152600401612c77906149a6565b60405180910390fd5b600081606001519050600082604001519050600283608001906005811115612cd1577f4e487b7100000000000000000000000000000000000000000000000000000000600052602160045260246000fd5b90816005811115612d0b577f4e487b7100000000000000000000000000000000000000000000000000000000600052602160045260246000fd5b8152505082600260008881526020019081526020016000206000820151816000015560208201518160010160006101000a81548173ffffffffffffffffffffffffffffffffffffffff021916908373ffffffffffffffffffffffffffffffffffffffff16021790555060408201518160020160006101000a81548173ffffffffffffffffffffffffffffffffffffffff021916908373ffffffffffffffffffffffffffffffffffffffff1602179055506060820151816003015560808201518160040160006101000a81548160ff02191690836005811115612e16577f4e487b7100000000000000000000000000000000000000000000000000000000600052602160045260246000fd5b02179055509050507ff29c49891c531905f19a342b02854f2f6055275bb7ccf2c3cb101ae5565e082583604051612e4d91906149e6565b60405180910390a160086000878152602001908152602001600020604051806040016040528060026005811115612ead577f4e487b7100000000000000000000000000000000000000000000000000000000600052602160045260246000fd5b815260200142815250908060018154018082558091505060019003906000526020600020906002020160009091909190915060008201518160000160006101000a81548160ff02191690836005811115612f30577f4e487b7100000000000000000000000000000000000000000000000000000000600052602160045260246000fd5b02179055506020820151816001015550508073ffffffffffffffffffffffffffffffffffffffff166108fc839081150290604051600060405180830381858888f19350505050158015612f87573d6000803e3d6000fd5b50505050505050565b7f000000000000000000000000000000000000000000000000000000000000000081565b606081612fc16001613e1c565b811115613003576040517f08c379a0000000000000000000000000000000000000000000000000000000008152600401612ffa906149c6565b60405180910390fd5b60086000848152602001908152602001600020805480602002602001604051908101604052809291908181526020016000905b828210156130f957838290600052602060002090600202016040518060400160405290816000820160009054906101000a900460ff1660058111156130a4577f4e487b7100000000000000000000000000000000000000000000000000000000600052602160045260246000fd5b60058111156130dc577f4e487b7100000000000000000000000000000000000000000000000000000000600052602160045260246000fd5b815260200160018201548152505081526020019060010190613036565b50505050915050919050565b61310d613e40565b816131186001613e1c565b81111561315a576040517f08c379a0000000000000000000000000000000000000000000000000000000008152600401613151906149c6565b60405180910390fd5b600260008481526020019081526020016000206040518060a0016040529081600082015481526020016001820160009054906101000a900473ffffffffffffffffffffffffffffffffffffffff1673ffffffffffffffffffffffffffffffffffffffff1673ffffffffffffffffffffffffffffffffffffffff1681526020016002820160009054906101000a900473ffffffffffffffffffffffffffffffffffffffff1673ffffffffffffffffffffffffffffffffffffffff1673ffffffffffffffffffffffffffffffffffffffff168152602001600382015481526020016004820160009054906101000a900460ff166005811115613283577f4e487b7100000000000000000000000000000000000000000000000000000000600052602160045260246000fd5b60058111156132bb577f4e487b7100000000000000000000000000000000000000000000000000000000600052602160045260246000fd5b81525050915050919050565b806132d26001613e1c565b811115613314576040517f08c379a000000000000000000000000000000000000000000000000000000000815260040161330b906149c6565b60405180910390fd5b813373ffffffffffffffffffffffffffffffffffffffff166002600083815260200190815260200160002060010160009054906101000a900473ffffffffffffffffffffffffffffffffffffffff1673ffffffffffffffffffffffffffffffffffffffff16146133b9576040517f08c379a00000000000000000000000000000000000000000000000000000000081526004016133b0906148a6565b60405180910390fd5b6000600260008581526020019081526020016000206040518060a0016040529081600082015481526020016001820160009054906101000a900473ffffffffffffffffffffffffffffffffffffffff1673ffffffffffffffffffffffffffffffffffffffff1673ffffffffffffffffffffffffffffffffffffffff1681526020016002820160009054906101000a900473ffffffffffffffffffffffffffffffffffffffff1673ffffffffffffffffffffffffffffffffffffffff1673ffffffffffffffffffffffffffffffffffffffff168152602001600382015481526020016004820160009054906101000a900460ff1660058111156134e4577f4e487b7100000000000000000000000000000000000000000000000000000000600052602160045260246000fd5b600581111561351c577f4e487b7100000000000000000000000000000000000000000000000000000000600052602160045260246000fd5b8152505090506000600581111561355c577f4e487b7100000000000000000000000000000000000000000000000000000000600052602160045260246000fd5b81608001516005811115613599577f4e487b7100000000000000000000000000000000000000000000000000000000600052602160045260246000fd5b14806136195750600160058111156135da577f4e487b7100000000000000000000000000000000000000000000000000000000600052602160045260246000fd5b81608001516005811115613617577f4e487b7100000000000000000000000000000000000000000000000000000000600052602160045260246000fd5b145b80613698575060026005811115613659577f4e487b7100000000000000000000000000000000000000000000000000000000600052602160045260246000fd5b81608001516005811115613696577f4e487b7100000000000000000000000000000000000000000000000000000000600052602160045260246000fd5b145b6136d7576040517f08c379a00000000000000000000000000000000000000000000000000000000081526004016136ce90614906565b60405180910390fd5b60006005811115613711577f4e487b7100000000000000000000000000000000000000000000000000000000600052602160045260246000fd5b8160800151600581111561374e577f4e487b7100000000000000000000000000000000000000000000000000000000600052602160045260246000fd5b1415613b4257600581608001906005811115613793577f4e487b7100000000000000000000000000000000000000000000000000000000600052602160045260246000fd5b908160058111156137cd577f4e487b7100000000000000000000000000000000000000000000000000000000600052602160045260246000fd5b8152505080600260008681526020019081526020016000206000820151816000015560208201518160010160006101000a81548173ffffffffffffffffffffffffffffffffffffffff021916908373ffffffffffffffffffffffffffffffffffffffff16021790555060408201518160020160006101000a81548173ffffffffffffffffffffffffffffffffffffffff021916908373ffffffffffffffffffffffffffffffffffffffff1602179055506060820151816003015560808201518160040160006101000a81548160ff021916908360058111156138d8577f4e487b7100000000000000000000000000000000000000000000000000000000600052602160045260246000fd5b02179055509050507fe4abc940b5524be9ddb12bce78b2c90d7a2cf10a9baea081b6fb59df6f944dbc8160405161390f91906149e6565b60405180910390a16008600085815260200190815260200160002060405180604001604052806004600581111561396f577f4e487b7100000000000000000000000000000000000000000000000000000000600052602160045260246000fd5b815260200142815250908060018154018082558091505060019003906000526020600020906002020160009091909190915060008201518160000160006101000a81548160ff021916908360058111156139f2577f4e487b7100000000000000000000000000000000000000000000000000000000600052602160045260246000fd5b0217905550602082015181600101555050600860008581526020019081526020016000206040518060400160405280600580811115613a5a577f4e487b7100000000000000000000000000000000000000000000000000000000600052602160045260246000fd5b815260200142815250908060018154018082558091505060019003906000526020600020906002020160009091909190915060008201518160000160006101000a81548160ff02191690836005811115613add577f4e487b7100000000000000000000000000000000000000000000000000000000600052602160045260246000fd5b0217905550602082015181600101555050806020015173ffffffffffffffffffffffffffffffffffffffff166108fc82606001519081150290604051600060405180830381858888f19350505050158015613b3c573d6000803e3d6000fd5b50613df2565b600481608001906005811115613b81577f4e487b7100000000000000000000000000000000000000000000000000000000600052602160045260246000fd5b90816005811115613bbb577f4e487b7100000000000000000000000000000000000000000000000000000000600052602160045260246000fd5b8152505080600260008681526020019081526020016000206000820151816000015560208201518160010160006101000a81548173ffffffffffffffffffffffffffffffffffffffff021916908373ffffffffffffffffffffffffffffffffffffffff16021790555060408201518160020160006101000a81548173ffffffffffffffffffffffffffffffffffffffff021916908373ffffffffffffffffffffffffffffffffffffffff1602179055506060820151816003015560808201518160040160006101000a81548160ff02191690836005811115613cc6577f4e487b7100000000000000000000000000000000000000000000000000000000600052602160045260246000fd5b02179055509050507f66494901f6d8103f9e520ebfae3e91ccbdbfb608805cae99cebc1209eafa45f081604051613cfd91906149e6565b60405180910390a160086000858152602001908152602001600020604051806040016040528060046005811115613d5d577f4e487b7100000000000000000000000000000000000000000000000000000000600052602160045260246000fd5b815260200142815250908060018154018082558091505060019003906000526020600020906002020160009091909190915060008201518160000160006101000a81548160ff02191690836005811115613de0577f4e487b7100000000000000000000000000000000000000000000000000000000600052602160045260246000fd5b02179055506020820151816001015550505b50505050565b7f000000000000000000000000000000000000000000000000000000000000000081565b600081600001549050919050565b6001816000016000828254019250508190555050565b6040518060a0016040528060008152602001600073ffffffffffffffffffffffffffffffffffffffff168152602001600073ffffffffffffffffffffffffffffffffffffffff1681526020016000815260200160006005811115613ecd577f4e487b7100000000000000000000000000000000000000000000000000000000600052602160045260246000fd5b81525090565b600081359050613ee281614c06565b92915050565b600081359050613ef781614c1d565b92915050565b600081359050613f0c81614c34565b92915050565b600060208284031215613f2457600080fd5b6000613f3284828501613ed3565b91505092915050565b60008060408385031215613f4e57600080fd5b6000613f5c85828601613ee8565b9250506020613f6d85828601613efd565b9150509250929050565b600060208284031215613f8957600080fd5b6000613f9784828501613efd565b91505092915050565b60008060408385031215613fb357600080fd5b6000613fc185828601613efd565b9250506020613fd285828601613efd565b9150509250929050565b6000613fe88383614033565b60208301905092915050565b600061400083836146a8565b60408301905092915050565b600061401883836146d7565b60a08301905092915050565b61402d81614aea565b82525050565b61403c81614ad8565b82525050565b61404b81614ad8565b82525050565b600061405c82614a4c565b6140668185614a94565b935061407183614a1c565b8060005b838110156140a25781516140898882613fdc565b975061409483614a6d565b925050600181019050614075565b5085935050505092915050565b60006140ba82614a57565b6140c48185614aa5565b93506140cf83614a2c565b8060005b838110156141005781516140e78882613ff4565b97506140f283614a7a565b9250506001810190506140d3565b5085935050505092915050565b600061411882614a62565b6141228185614ab6565b935061412d83614a3c565b8060005b8381101561415e578151614145888261400c565b975061415083614a87565b925050600181019050614131565b5085935050505092915050565b61417481614b39565b82525050565b6000614187603483614ac7565b91507f4552524f523a20546869732073656c6c65722069736e2774207265676973746560008301527f72656420696e206f757220706c6174666f726d2e0000000000000000000000006020830152604082019050919050565b60006141ed602083614ac7565b91507f4552524f523a20596f752061726520616c726561647920612073656c6c65722e6000830152602082019050919050565b600061422d602b83614ac7565b91507f4552524f523a20596f75277265206e6f74207468652073656c6c6572206f662060008301527f74686973206f726465722e0000000000000000000000000000000000000000006020830152604082019050919050565b6000614293602a83614ac7565b91507f4552524f523a20596f75277265206e6f7420746865206275796572206f66207460008301527f686973206f726465722e000000000000000000000000000000000000000000006020830152604082019050919050565b60006142f9602383614ac7565b91507f4552524f523a20596f752063616e27742064656c6574652074686973206f726460008301527f65722e00000000000000000000000000000000000000000000000000000000006020830152604082019050919050565b600061435f604783614ac7565b91507f4552524f523a2054686520616d6f756e7420796f752077616e74656420746f2060008301527f73656e64206973206e6f7420657175616c20746f20746865206f72646572277360208301527f2070726963652e000000000000000000000000000000000000000000000000006040830152606082019050919050565b60006143eb602b83614ac7565b91507f4552524f523a20596f752063616e27742061736b20726566756e6420666f722060008301527f74686973206f726465722e0000000000000000000000000000000000000000006020830152604082019050919050565b6000614451602183614ac7565b91507f4552524f523a20596f752063616e277420736869702074686973206f7264657260008301527f2e000000000000000000000000000000000000000000000000000000000000006020830152604082019050919050565b60006144b7602683614ac7565b91507f4552524f523a20546865206f7264657220616d6f756e742063616e277420626560008301527f206e756c6c2e00000000000000000000000000000000000000000000000000006020830152604082019050919050565b600061451d603383614ac7565b91507f4552524f523a20546869732075736572206973206e6f7420726567697374657260008301527f656420696e206f757220706c6174666f726d2e000000000000000000000000006020830152604082019050919050565b6000614583603183614ac7565b91507f4552524f523a20596f752063616e277420706572666f726d206120726566756e60008301527f6420666f722074686973206f726465722e0000000000000000000000000000006020830152604082019050919050565b60006145e9602483614ac7565b91507f4552524f523a20596f752063616e277420636f6e6669726d2074686973206f7260008301527f6465722e000000000000000000000000000000000000000000000000000000006020830152604082019050919050565b600061464f602183614ac7565b91507f4552524f523a2054686973206f7264657220646f6573206e6f7420657869737460008301527f2e000000000000000000000000000000000000000000000000000000000000006020830152604082019050919050565b6040820160008201516146be600085018261416b565b5060208201516146d160208501826147a7565b50505050565b60a0820160008201516146ed60008501826147a7565b5060208201516147006020850182614024565b5060408201516147136040850182614024565b50606082015161472660608501826147a7565b506080820151614739608085018261416b565b50505050565b60a08201600082015161475560008501826147a7565b5060208201516147686020850182614024565b50604082015161477b6040850182614024565b50606082015161478e60608501826147a7565b5060808201516147a1608085018261416b565b50505050565b6147b081614b2f565b82525050565b6147bf81614b2f565b82525050565b60006020820190506147da6000830184614042565b92915050565b600060208201905081810360008301526147fa8184614051565b905092915050565b6000602082019050818103600083015261481c81846140af565b905092915050565b6000602082019050818103600083015261483e818461410d565b905092915050565b6000602082019050818103600083015261485f8161417a565b9050919050565b6000602082019050818103600083015261487f816141e0565b9050919050565b6000602082019050818103600083015261489f81614220565b9050919050565b600060208201905081810360008301526148bf81614286565b9050919050565b600060208201905081810360008301526148df816142ec565b9050919050565b600060208201905081810360008301526148ff81614352565b9050919050565b6000602082019050818103600083015261491f816143de565b9050919050565b6000602082019050818103600083015261493f81614444565b9050919050565b6000602082019050818103600083015261495f816144aa565b9050919050565b6000602082019050818103600083015261497f81614510565b9050919050565b6000602082019050818103600083015261499f81614576565b9050919050565b600060208201905081810360008301526149bf816145dc565b9050919050565b600060208201905081810360008301526149df81614642565b9050919050565b600060a0820190506149fb600083018461473f565b92915050565b6000602082019050614a1660008301846147b6565b92915050565b6000819050602082019050919050565b6000819050602082019050919050565b6000819050602082019050919050565b600081519050919050565b600081519050919050565b600081519050919050565b6000602082019050919050565b6000602082019050919050565b6000602082019050919050565b600082825260208201905092915050565b600082825260208201905092915050565b600082825260208201905092915050565b600082825260208201905092915050565b6000614ae382614b0f565b9050919050565b6000614af582614b0f565b9050919050565b6000819050614b0a82614bf2565b919050565b600073ffffffffffffffffffffffffffffffffffffffff82169050919050565b6000819050919050565b6000614b4482614afc565b9050919050565b6000614b5682614b2f565b91507fffffffffffffffffffffffffffffffffffffffffffffffffffffffffffffffff821415614b8957614b88614b94565b5b600182019050919050565b7f4e487b7100000000000000000000000000000000000000000000000000000000600052601160045260246000fd5b7f4e487b7100000000000000000000000000000000000000000000000000000000600052602160045260246000fd5b60068110614c0357614c02614bc3565b5b50565b614c0f81614ad8565b8114614c1a57600080fd5b50565b614c2681614aea565b8114614c3157600080fd5b50565b614c3d81614b2f565b8114614c4857600080fd5b5056fea2646970667358221220766f34f8da56c604a1ddc335da1a0911272a047ba87338da629c369572bd278b64736f6c63430008000033",
  "linkReferences": {},
  "deployedLinkReferences": {}
}